{
	"Multi_Owner_Wallet.sol": {
		"MultiOwnerWallet": {
			"abi": [
				{
					"inputs": [
						{
							"internalType": "address[]",
							"name": "_owners",
							"type": "address[]"
						}
					],
					"stateMutability": "nonpayable",
					"type": "constructor"
				},
				{
					"inputs": [
						{
							"internalType": "address",
							"name": "",
							"type": "address"
						}
					],
					"name": "approval",
					"outputs": [
						{
							"internalType": "bool",
							"name": "",
							"type": "bool"
						}
					],
					"stateMutability": "view",
					"type": "function"
				},
				{
					"inputs": [],
					"name": "approvalCount",
					"outputs": [
						{
							"internalType": "uint256",
							"name": "",
							"type": "uint256"
						}
					],
					"stateMutability": "view",
					"type": "function"
				},
				{
					"inputs": [],
					"name": "approveWithdrawal",
					"outputs": [],
					"stateMutability": "nonpayable",
					"type": "function"
				},
				{
					"inputs": [],
					"name": "deposit",
					"outputs": [],
					"stateMutability": "payable",
					"type": "function"
				},
				{
					"inputs": [],
					"name": "getBalance",
					"outputs": [
						{
							"internalType": "uint256",
							"name": "",
							"type": "uint256"
						}
					],
					"stateMutability": "view",
					"type": "function"
				},
				{
					"inputs": [],
					"name": "getOwners",
					"outputs": [
						{
							"internalType": "address[]",
							"name": "",
							"type": "address[]"
						}
					],
					"stateMutability": "view",
					"type": "function"
				},
				{
					"inputs": [
						{
							"internalType": "address",
							"name": "",
							"type": "address"
						}
					],
					"name": "isOwner",
					"outputs": [
						{
							"internalType": "bool",
							"name": "",
							"type": "bool"
						}
					],
					"stateMutability": "view",
					"type": "function"
				},
				{
					"inputs": [
						{
							"internalType": "uint256",
							"name": "",
							"type": "uint256"
						}
					],
					"name": "owners",
					"outputs": [
						{
							"internalType": "address",
							"name": "",
							"type": "address"
						}
					],
					"stateMutability": "view",
					"type": "function"
				},
				{
					"inputs": [
						{
							"internalType": "uint256",
							"name": "amount",
							"type": "uint256"
						},
						{
							"internalType": "address",
							"name": "to",
							"type": "address"
						}
					],
					"name": "requestWithdrawal",
					"outputs": [],
					"stateMutability": "nonpayable",
					"type": "function"
				},
				{
					"inputs": [],
					"name": "withdrawalAmount",
					"outputs": [
						{
							"internalType": "uint256",
							"name": "",
							"type": "uint256"
						}
					],
					"stateMutability": "view",
					"type": "function"
				},
				{
					"inputs": [],
					"name": "withdrawalRequested",
					"outputs": [
						{
							"internalType": "bool",
							"name": "",
							"type": "bool"
						}
					],
					"stateMutability": "view",
					"type": "function"
				},
				{
					"inputs": [],
					"name": "withdrawalTo",
					"outputs": [
						{
							"internalType": "address",
							"name": "",
							"type": "address"
						}
					],
					"stateMutability": "view",
					"type": "function"
				}
			],
			"devdoc": {
				"kind": "dev",
				"methods": {},
				"version": 1
			},
			"evm": {
				"assembly": "    /* \"Multi_Owner_Wallet.sol\":60:2203  contract MultiOwnerWallet {... */\n  mstore(0x40, 0x80)\n    /* \"Multi_Owner_Wallet.sol\":437:845  constructor(address[] memory _owners) {... */\n  callvalue\n  dup1\n  iszero\n  tag_1\n  jumpi\n  revert(0x00, 0x00)\ntag_1:\n  pop\n  mload(0x40)\n  sub(codesize, bytecodeSize)\n  dup1\n  bytecodeSize\n  dup4\n  codecopy\n  dup2\n  dup2\n  add\n  0x40\n  mstore\n  dup2\n  add\n  swap1\n  tag_2\n  swap2\n  swap1\n  tag_3\n  jump\t// in\ntag_2:\n    /* \"Multi_Owner_Wallet.sol\":511:512  0 */\n  0x00\n    /* \"Multi_Owner_Wallet.sol\":494:501  _owners */\n  dup2\n    /* \"Multi_Owner_Wallet.sol\":494:508  _owners.length */\n  mload\n    /* \"Multi_Owner_Wallet.sol\":494:512  _owners.length > 0 */\n  gt\n    /* \"Multi_Owner_Wallet.sol\":486:538  require(_owners.length > 0, \"Need at least 1 owner\") */\n  tag_6\n  jumpi\n  mload(0x40)\n  0x08c379a000000000000000000000000000000000000000000000000000000000\n  dup2\n  mstore\n  0x04\n  add\n  tag_7\n  swap1\n  tag_8\n  jump\t// in\ntag_7:\n  mload(0x40)\n  dup1\n  swap2\n  sub\n  swap1\n  revert\ntag_6:\n    /* \"Multi_Owner_Wallet.sol\":556:565  uint256 i */\n  0x00\n    /* \"Multi_Owner_Wallet.sol\":568:569  0 */\n  0x00\n    /* \"Multi_Owner_Wallet.sol\":556:569  uint256 i = 0 */\n  swap1\n  pop\n    /* \"Multi_Owner_Wallet.sol\":551:838  for (uint256 i = 0; i < _owners.length; i++) {... */\ntag_9:\n    /* \"Multi_Owner_Wallet.sol\":575:582  _owners */\n  dup2\n    /* \"Multi_Owner_Wallet.sol\":575:589  _owners.length */\n  mload\n    /* \"Multi_Owner_Wallet.sol\":571:572  i */\n  dup2\n    /* \"Multi_Owner_Wallet.sol\":571:589  i < _owners.length */\n  lt\n    /* \"Multi_Owner_Wallet.sol\":551:838  for (uint256 i = 0; i < _owners.length; i++) {... */\n  iszero\n  tag_10\n  jumpi\n    /* \"Multi_Owner_Wallet.sol\":611:624  address owner */\n  0x00\n    /* \"Multi_Owner_Wallet.sol\":627:634  _owners */\n  dup3\n    /* \"Multi_Owner_Wallet.sol\":635:636  i */\n  dup3\n    /* \"Multi_Owner_Wallet.sol\":627:637  _owners[i] */\n  dup2\n  mload\n  dup2\n  lt\n  tag_12\n  jumpi\n  tag_13\n  tag_14\n  jump\t// in\ntag_13:\ntag_12:\n  0x20\n  mul\n  0x20\n  add\n  add\n  mload\n    /* \"Multi_Owner_Wallet.sol\":611:637  address owner = _owners[i] */\n  swap1\n  pop\n    /* \"Multi_Owner_Wallet.sol\":677:678  0 */\n  0x00\n    /* \"Multi_Owner_Wallet.sol\":660:679  owner != address(0) */\n  0xffffffffffffffffffffffffffffffffffffffff\n  and\n    /* \"Multi_Owner_Wallet.sol\":660:665  owner */\n  dup2\n    /* \"Multi_Owner_Wallet.sol\":660:679  owner != address(0) */\n  0xffffffffffffffffffffffffffffffffffffffff\n  and\n  sub\n    /* \"Multi_Owner_Wallet.sol\":652:697  require(owner != address(0), \"Invalid owner\") */\n  tag_15\n  jumpi\n  mload(0x40)\n  0x08c379a000000000000000000000000000000000000000000000000000000000\n  dup2\n  mstore\n  0x04\n  add\n  tag_16\n  swap1\n  tag_17\n  jump\t// in\ntag_16:\n  mload(0x40)\n  dup1\n  swap2\n  sub\n  swap1\n  revert\ntag_15:\n    /* \"Multi_Owner_Wallet.sol\":721:728  isOwner */\n  0x01\n    /* \"Multi_Owner_Wallet.sol\":721:735  isOwner[owner] */\n  0x00\n    /* \"Multi_Owner_Wallet.sol\":729:734  owner */\n  dup3\n    /* \"Multi_Owner_Wallet.sol\":721:735  isOwner[owner] */\n  0xffffffffffffffffffffffffffffffffffffffff\n  and\n  0xffffffffffffffffffffffffffffffffffffffff\n  and\n  dup2\n  mstore\n  0x20\n  add\n  swap1\n  dup2\n  mstore\n  0x20\n  add\n  0x00\n  keccak256\n  0x00\n  swap1\n  sload\n  swap1\n  0x0100\n  exp\n  swap1\n  div\n  0xff\n  and\n    /* \"Multi_Owner_Wallet.sol\":720:735  !isOwner[owner] */\n  iszero\n    /* \"Multi_Owner_Wallet.sol\":712:755  require(!isOwner[owner], \"Duplicate owner\") */\n  tag_18\n  jumpi\n  mload(0x40)\n  0x08c379a000000000000000000000000000000000000000000000000000000000\n  dup2\n  mstore\n  0x04\n  add\n  tag_19\n  swap1\n  tag_20\n  jump\t// in\ntag_19:\n  mload(0x40)\n  dup1\n  swap2\n  sub\n  swap1\n  revert\ntag_18:\n    /* \"Multi_Owner_Wallet.sol\":772:778  owners */\n  0x00\n    /* \"Multi_Owner_Wallet.sol\":784:789  owner */\n  dup2\n    /* \"Multi_Owner_Wallet.sol\":772:790  owners.push(owner) */\n  swap1\n  dup1\n  0x01\n  dup2\n  sload\n  add\n  dup1\n  dup3\n  sstore\n  dup1\n  swap2\n  pop\n  pop\n  0x01\n  swap1\n  sub\n  swap1\n  0x00\n  mstore\n  keccak256(0x00, 0x20)\n  add\n  0x00\n  swap1\n  swap2\n  swap1\n  swap2\n  swap1\n  swap2\n  0x0100\n  exp\n  dup2\n  sload\n  dup2\n  0xffffffffffffffffffffffffffffffffffffffff\n  mul\n  not\n  and\n  swap1\n  dup4\n  0xffffffffffffffffffffffffffffffffffffffff\n  and\n  mul\n  or\n  swap1\n  sstore\n  pop\n    /* \"Multi_Owner_Wallet.sol\":822:826  true */\n  0x01\n    /* \"Multi_Owner_Wallet.sol\":805:812  isOwner */\n  dup1\n    /* \"Multi_Owner_Wallet.sol\":805:819  isOwner[owner] */\n  0x00\n    /* \"Multi_Owner_Wallet.sol\":813:818  owner */\n  dup4\n    /* \"Multi_Owner_Wallet.sol\":805:819  isOwner[owner] */\n  0xffffffffffffffffffffffffffffffffffffffff\n  and\n  0xffffffffffffffffffffffffffffffffffffffff\n  and\n  dup2\n  mstore\n  0x20\n  add\n  swap1\n  dup2\n  mstore\n  0x20\n  add\n  0x00\n  keccak256\n  0x00\n    /* \"Multi_Owner_Wallet.sol\":805:826  isOwner[owner] = true */\n  0x0100\n  exp\n  dup2\n  sload\n  dup2\n  0xff\n  mul\n  not\n  and\n  swap1\n  dup4\n  iszero\n  iszero\n  mul\n  or\n  swap1\n  sstore\n  pop\n    /* \"Multi_Owner_Wallet.sol\":596:838  {... */\n  pop\n    /* \"Multi_Owner_Wallet.sol\":591:594  i++ */\n  dup1\n  dup1\n  0x01\n  add\n  swap2\n  pop\n  pop\n    /* \"Multi_Owner_Wallet.sol\":551:838  for (uint256 i = 0; i < _owners.length; i++) {... */\n  jump(tag_9)\ntag_10:\n  pop\n    /* \"Multi_Owner_Wallet.sol\":437:845  constructor(address[] memory _owners) {... */\n  pop\n    /* \"Multi_Owner_Wallet.sol\":60:2203  contract MultiOwnerWallet {... */\n  jump(tag_22)\n    /* \"#utility.yul\":7:82   */\ntag_23:\n    /* \"#utility.yul\":40:46   */\n  0x00\n    /* \"#utility.yul\":73:75   */\n  0x40\n    /* \"#utility.yul\":67:76   */\n  mload\n    /* \"#utility.yul\":57:76   */\n  swap1\n  pop\n    /* \"#utility.yul\":7:82   */\n  swap1\n  jump\t// out\n    /* \"#utility.yul\":88:205   */\ntag_24:\n    /* \"#utility.yul\":197:198   */\n  0x00\n    /* \"#utility.yul\":194:195   */\n  0x00\n    /* \"#utility.yul\":187:199   */\n  revert\n    /* \"#utility.yul\":211:328   */\ntag_25:\n    /* \"#utility.yul\":320:321   */\n  0x00\n    /* \"#utility.yul\":317:318   */\n  0x00\n    /* \"#utility.yul\":310:322   */\n  revert\n    /* \"#utility.yul\":334:451   */\ntag_26:\n    /* \"#utility.yul\":443:444   */\n  0x00\n    /* \"#utility.yul\":440:441   */\n  0x00\n    /* \"#utility.yul\":433:445   */\n  revert\n    /* \"#utility.yul\":457:559   */\ntag_27:\n    /* \"#utility.yul\":498:504   */\n  0x00\n    /* \"#utility.yul\":549:551   */\n  0x1f\n    /* \"#utility.yul\":545:552   */\n  not\n    /* \"#utility.yul\":540:542   */\n  0x1f\n    /* \"#utility.yul\":533:538   */\n  dup4\n    /* \"#utility.yul\":529:543   */\n  add\n    /* \"#utility.yul\":525:553   */\n  and\n    /* \"#utility.yul\":515:553   */\n  swap1\n  pop\n    /* \"#utility.yul\":457:559   */\n  swap2\n  swap1\n  pop\n  jump\t// out\n    /* \"#utility.yul\":565:745   */\ntag_28:\n    /* \"#utility.yul\":613:690   */\n  0x4e487b7100000000000000000000000000000000000000000000000000000000\n    /* \"#utility.yul\":610:611   */\n  0x00\n    /* \"#utility.yul\":603:691   */\n  mstore\n    /* \"#utility.yul\":710:714   */\n  0x41\n    /* \"#utility.yul\":707:708   */\n  0x04\n    /* \"#utility.yul\":700:715   */\n  mstore\n    /* \"#utility.yul\":734:738   */\n  0x24\n    /* \"#utility.yul\":731:732   */\n  0x00\n    /* \"#utility.yul\":724:739   */\n  revert\n    /* \"#utility.yul\":751:1032   */\ntag_29:\n    /* \"#utility.yul\":834:861   */\n  tag_54\n    /* \"#utility.yul\":856:860   */\n  dup3\n    /* \"#utility.yul\":834:861   */\n  tag_27\n  jump\t// in\ntag_54:\n    /* \"#utility.yul\":826:832   */\n  dup2\n    /* \"#utility.yul\":822:862   */\n  add\n    /* \"#utility.yul\":964:970   */\n  dup2\n    /* \"#utility.yul\":952:962   */\n  dup2\n    /* \"#utility.yul\":949:971   */\n  lt\n    /* \"#utility.yul\":928:946   */\n  0xffffffffffffffff\n    /* \"#utility.yul\":916:926   */\n  dup3\n    /* \"#utility.yul\":913:947   */\n  gt\n    /* \"#utility.yul\":910:972   */\n  or\n    /* \"#utility.yul\":907:995   */\n  iszero\n  tag_55\n  jumpi\n    /* \"#utility.yul\":975:993   */\n  tag_56\n  tag_28\n  jump\t// in\ntag_56:\n    /* \"#utility.yul\":907:995   */\ntag_55:\n    /* \"#utility.yul\":1015:1025   */\n  dup1\n    /* \"#utility.yul\":1011:1013   */\n  0x40\n    /* \"#utility.yul\":1004:1026   */\n  mstore\n    /* \"#utility.yul\":794:1032   */\n  pop\n    /* \"#utility.yul\":751:1032   */\n  pop\n  pop\n  jump\t// out\n    /* \"#utility.yul\":1038:1167   */\ntag_30:\n    /* \"#utility.yul\":1072:1078   */\n  0x00\n    /* \"#utility.yul\":1099:1119   */\n  tag_58\n  tag_23\n  jump\t// in\ntag_58:\n    /* \"#utility.yul\":1089:1119   */\n  swap1\n  pop\n    /* \"#utility.yul\":1128:1161   */\n  tag_59\n    /* \"#utility.yul\":1156:1160   */\n  dup3\n    /* \"#utility.yul\":1148:1154   */\n  dup3\n    /* \"#utility.yul\":1128:1161   */\n  tag_29\n  jump\t// in\ntag_59:\n    /* \"#utility.yul\":1038:1167   */\n  swap2\n  swap1\n  pop\n  jump\t// out\n    /* \"#utility.yul\":1173:1484   */\ntag_31:\n    /* \"#utility.yul\":1250:1254   */\n  0x00\n    /* \"#utility.yul\":1340:1358   */\n  0xffffffffffffffff\n    /* \"#utility.yul\":1332:1338   */\n  dup3\n    /* \"#utility.yul\":1329:1359   */\n  gt\n    /* \"#utility.yul\":1326:1382   */\n  iszero\n  tag_61\n  jumpi\n    /* \"#utility.yul\":1362:1380   */\n  tag_62\n  tag_28\n  jump\t// in\ntag_62:\n    /* \"#utility.yul\":1326:1382   */\ntag_61:\n    /* \"#utility.yul\":1412:1416   */\n  0x20\n    /* \"#utility.yul\":1404:1410   */\n  dup3\n    /* \"#utility.yul\":1400:1417   */\n  mul\n    /* \"#utility.yul\":1392:1417   */\n  swap1\n  pop\n    /* \"#utility.yul\":1472:1476   */\n  0x20\n    /* \"#utility.yul\":1466:1470   */\n  dup2\n    /* \"#utility.yul\":1462:1477   */\n  add\n    /* \"#utility.yul\":1454:1477   */\n  swap1\n  pop\n    /* \"#utility.yul\":1173:1484   */\n  swap2\n  swap1\n  pop\n  jump\t// out\n    /* \"#utility.yul\":1490:1607   */\ntag_32:\n    /* \"#utility.yul\":1599:1600   */\n  0x00\n    /* \"#utility.yul\":1596:1597   */\n  0x00\n    /* \"#utility.yul\":1589:1601   */\n  revert\n    /* \"#utility.yul\":1613:1739   */\ntag_33:\n    /* \"#utility.yul\":1650:1657   */\n  0x00\n    /* \"#utility.yul\":1690:1732   */\n  0xffffffffffffffffffffffffffffffffffffffff\n    /* \"#utility.yul\":1683:1688   */\n  dup3\n    /* \"#utility.yul\":1679:1733   */\n  and\n    /* \"#utility.yul\":1668:1733   */\n  swap1\n  pop\n    /* \"#utility.yul\":1613:1739   */\n  swap2\n  swap1\n  pop\n  jump\t// out\n    /* \"#utility.yul\":1745:1841   */\ntag_34:\n    /* \"#utility.yul\":1782:1789   */\n  0x00\n    /* \"#utility.yul\":1811:1835   */\n  tag_66\n    /* \"#utility.yul\":1829:1834   */\n  dup3\n    /* \"#utility.yul\":1811:1835   */\n  tag_33\n  jump\t// in\ntag_66:\n    /* \"#utility.yul\":1800:1835   */\n  swap1\n  pop\n    /* \"#utility.yul\":1745:1841   */\n  swap2\n  swap1\n  pop\n  jump\t// out\n    /* \"#utility.yul\":1847:1969   */\ntag_35:\n    /* \"#utility.yul\":1920:1944   */\n  tag_68\n    /* \"#utility.yul\":1938:1943   */\n  dup2\n    /* \"#utility.yul\":1920:1944   */\n  tag_34\n  jump\t// in\ntag_68:\n    /* \"#utility.yul\":1913:1918   */\n  dup2\n    /* \"#utility.yul\":1910:1945   */\n  eq\n    /* \"#utility.yul\":1900:1963   */\n  tag_69\n  jumpi\n    /* \"#utility.yul\":1959:1960   */\n  0x00\n    /* \"#utility.yul\":1956:1957   */\n  0x00\n    /* \"#utility.yul\":1949:1961   */\n  revert\n    /* \"#utility.yul\":1900:1963   */\ntag_69:\n    /* \"#utility.yul\":1847:1969   */\n  pop\n  jump\t// out\n    /* \"#utility.yul\":1975:2118   */\ntag_36:\n    /* \"#utility.yul\":2032:2037   */\n  0x00\n    /* \"#utility.yul\":2063:2069   */\n  dup2\n    /* \"#utility.yul\":2057:2070   */\n  mload\n    /* \"#utility.yul\":2048:2070   */\n  swap1\n  pop\n    /* \"#utility.yul\":2079:2112   */\n  tag_71\n    /* \"#utility.yul\":2106:2111   */\n  dup2\n    /* \"#utility.yul\":2079:2112   */\n  tag_35\n  jump\t// in\ntag_71:\n    /* \"#utility.yul\":1975:2118   */\n  swap3\n  swap2\n  pop\n  pop\n  jump\t// out\n    /* \"#utility.yul\":2141:2873   */\ntag_37:\n    /* \"#utility.yul\":2248:2253   */\n  0x00\n    /* \"#utility.yul\":2273:2354   */\n  tag_73\n    /* \"#utility.yul\":2289:2353   */\n  tag_74\n    /* \"#utility.yul\":2346:2352   */\n  dup5\n    /* \"#utility.yul\":2289:2353   */\n  tag_31\n  jump\t// in\ntag_74:\n    /* \"#utility.yul\":2273:2354   */\n  tag_30\n  jump\t// in\ntag_73:\n    /* \"#utility.yul\":2264:2354   */\n  swap1\n  pop\n    /* \"#utility.yul\":2374:2379   */\n  dup1\n    /* \"#utility.yul\":2403:2409   */\n  dup4\n    /* \"#utility.yul\":2396:2401   */\n  dup3\n    /* \"#utility.yul\":2389:2410   */\n  mstore\n    /* \"#utility.yul\":2437:2441   */\n  0x20\n    /* \"#utility.yul\":2430:2435   */\n  dup3\n    /* \"#utility.yul\":2426:2442   */\n  add\n    /* \"#utility.yul\":2419:2442   */\n  swap1\n  pop\n    /* \"#utility.yul\":2490:2494   */\n  0x20\n    /* \"#utility.yul\":2482:2488   */\n  dup5\n    /* \"#utility.yul\":2478:2495   */\n  mul\n    /* \"#utility.yul\":2470:2476   */\n  dup4\n    /* \"#utility.yul\":2466:2496   */\n  add\n    /* \"#utility.yul\":2519:2522   */\n  dup6\n    /* \"#utility.yul\":2511:2517   */\n  dup2\n    /* \"#utility.yul\":2508:2523   */\n  gt\n    /* \"#utility.yul\":2505:2627   */\n  iszero\n  tag_75\n  jumpi\n    /* \"#utility.yul\":2538:2617   */\n  tag_76\n  tag_32\n  jump\t// in\ntag_76:\n    /* \"#utility.yul\":2505:2627   */\ntag_75:\n    /* \"#utility.yul\":2653:2659   */\n  dup4\n    /* \"#utility.yul\":2636:2867   */\ntag_77:\n    /* \"#utility.yul\":2670:2676   */\n  dup2\n    /* \"#utility.yul\":2665:2668   */\n  dup2\n    /* \"#utility.yul\":2662:2677   */\n  lt\n    /* \"#utility.yul\":2636:2867   */\n  iszero\n  tag_79\n  jumpi\n    /* \"#utility.yul\":2745:2748   */\n  dup1\n    /* \"#utility.yul\":2774:2822   */\n  tag_80\n    /* \"#utility.yul\":2818:2821   */\n  dup9\n    /* \"#utility.yul\":2806:2816   */\n  dup3\n    /* \"#utility.yul\":2774:2822   */\n  tag_36\n  jump\t// in\ntag_80:\n    /* \"#utility.yul\":2769:2772   */\n  dup5\n    /* \"#utility.yul\":2762:2823   */\n  mstore\n    /* \"#utility.yul\":2852:2856   */\n  0x20\n    /* \"#utility.yul\":2847:2850   */\n  dup5\n    /* \"#utility.yul\":2843:2857   */\n  add\n    /* \"#utility.yul\":2836:2857   */\n  swap4\n  pop\n    /* \"#utility.yul\":2712:2867   */\n  pop\n    /* \"#utility.yul\":2696:2700   */\n  0x20\n    /* \"#utility.yul\":2691:2694   */\n  dup2\n    /* \"#utility.yul\":2687:2701   */\n  add\n    /* \"#utility.yul\":2680:2701   */\n  swap1\n  pop\n    /* \"#utility.yul\":2636:2867   */\n  jump(tag_77)\ntag_79:\n    /* \"#utility.yul\":2640:2661   */\n  pop\n    /* \"#utility.yul\":2254:2873   */\n  pop\n  pop\n    /* \"#utility.yul\":2141:2873   */\n  swap4\n  swap3\n  pop\n  pop\n  pop\n  jump\t// out\n    /* \"#utility.yul\":2896:3281   */\ntag_38:\n    /* \"#utility.yul\":2978:2983   */\n  0x00\n    /* \"#utility.yul\":3027:3030   */\n  dup3\n    /* \"#utility.yul\":3020:3024   */\n  0x1f\n    /* \"#utility.yul\":3012:3018   */\n  dup4\n    /* \"#utility.yul\":3008:3025   */\n  add\n    /* \"#utility.yul\":3004:3031   */\n  slt\n    /* \"#utility.yul\":2994:3116   */\n  tag_82\n  jumpi\n    /* \"#utility.yul\":3035:3114   */\n  tag_83\n  tag_26\n  jump\t// in\ntag_83:\n    /* \"#utility.yul\":2994:3116   */\ntag_82:\n    /* \"#utility.yul\":3145:3151   */\n  dup2\n    /* \"#utility.yul\":3139:3152   */\n  mload\n    /* \"#utility.yul\":3170:3275   */\n  tag_84\n    /* \"#utility.yul\":3271:3274   */\n  dup5\n    /* \"#utility.yul\":3263:3269   */\n  dup3\n    /* \"#utility.yul\":3256:3260   */\n  0x20\n    /* \"#utility.yul\":3248:3254   */\n  dup7\n    /* \"#utility.yul\":3244:3261   */\n  add\n    /* \"#utility.yul\":3170:3275   */\n  tag_37\n  jump\t// in\ntag_84:\n    /* \"#utility.yul\":3161:3275   */\n  swap2\n  pop\n    /* \"#utility.yul\":2984:3281   */\n  pop\n    /* \"#utility.yul\":2896:3281   */\n  swap3\n  swap2\n  pop\n  pop\n  jump\t// out\n    /* \"#utility.yul\":3287:3841   */\ntag_3:\n    /* \"#utility.yul\":3382:3388   */\n  0x00\n    /* \"#utility.yul\":3431:3433   */\n  0x20\n    /* \"#utility.yul\":3419:3428   */\n  dup3\n    /* \"#utility.yul\":3410:3417   */\n  dup5\n    /* \"#utility.yul\":3406:3429   */\n  sub\n    /* \"#utility.yul\":3402:3434   */\n  slt\n    /* \"#utility.yul\":3399:3518   */\n  iszero\n  tag_86\n  jumpi\n    /* \"#utility.yul\":3437:3516   */\n  tag_87\n  tag_24\n  jump\t// in\ntag_87:\n    /* \"#utility.yul\":3399:3518   */\ntag_86:\n    /* \"#utility.yul\":3578:3579   */\n  0x00\n    /* \"#utility.yul\":3567:3576   */\n  dup3\n    /* \"#utility.yul\":3563:3580   */\n  add\n    /* \"#utility.yul\":3557:3581   */\n  mload\n    /* \"#utility.yul\":3608:3626   */\n  0xffffffffffffffff\n    /* \"#utility.yul\":3600:3606   */\n  dup2\n    /* \"#utility.yul\":3597:3627   */\n  gt\n    /* \"#utility.yul\":3594:3711   */\n  iszero\n  tag_88\n  jumpi\n    /* \"#utility.yul\":3630:3709   */\n  tag_89\n  tag_25\n  jump\t// in\ntag_89:\n    /* \"#utility.yul\":3594:3711   */\ntag_88:\n    /* \"#utility.yul\":3735:3824   */\n  tag_90\n    /* \"#utility.yul\":3816:3823   */\n  dup5\n    /* \"#utility.yul\":3807:3813   */\n  dup3\n    /* \"#utility.yul\":3796:3805   */\n  dup6\n    /* \"#utility.yul\":3792:3814   */\n  add\n    /* \"#utility.yul\":3735:3824   */\n  tag_38\n  jump\t// in\ntag_90:\n    /* \"#utility.yul\":3725:3824   */\n  swap2\n  pop\n    /* \"#utility.yul\":3528:3834   */\n  pop\n    /* \"#utility.yul\":3287:3841   */\n  swap3\n  swap2\n  pop\n  pop\n  jump\t// out\n    /* \"#utility.yul\":3847:4016   */\ntag_39:\n    /* \"#utility.yul\":3931:3942   */\n  0x00\n    /* \"#utility.yul\":3965:3971   */\n  dup3\n    /* \"#utility.yul\":3960:3963   */\n  dup3\n    /* \"#utility.yul\":3953:3972   */\n  mstore\n    /* \"#utility.yul\":4005:4009   */\n  0x20\n    /* \"#utility.yul\":4000:4003   */\n  dup3\n    /* \"#utility.yul\":3996:4010   */\n  add\n    /* \"#utility.yul\":3981:4010   */\n  swap1\n  pop\n    /* \"#utility.yul\":3847:4016   */\n  swap3\n  swap2\n  pop\n  pop\n  jump\t// out\n    /* \"#utility.yul\":4022:4193   */\ntag_40:\n    /* \"#utility.yul\":4162:4185   */\n  0x4e656564206174206c656173742031206f776e65720000000000000000000000\n    /* \"#utility.yul\":4158:4159   */\n  0x00\n    /* \"#utility.yul\":4150:4156   */\n  dup3\n    /* \"#utility.yul\":4146:4160   */\n  add\n    /* \"#utility.yul\":4139:4186   */\n  mstore\n    /* \"#utility.yul\":4022:4193   */\n  pop\n  jump\t// out\n    /* \"#utility.yul\":4199:4565   */\ntag_41:\n    /* \"#utility.yul\":4341:4344   */\n  0x00\n    /* \"#utility.yul\":4362:4429   */\n  tag_94\n    /* \"#utility.yul\":4426:4428   */\n  0x15\n    /* \"#utility.yul\":4421:4424   */\n  dup4\n    /* \"#utility.yul\":4362:4429   */\n  tag_39\n  jump\t// in\ntag_94:\n    /* \"#utility.yul\":4355:4429   */\n  swap2\n  pop\n    /* \"#utility.yul\":4438:4531   */\n  tag_95\n    /* \"#utility.yul\":4527:4530   */\n  dup3\n    /* \"#utility.yul\":4438:4531   */\n  tag_40\n  jump\t// in\ntag_95:\n    /* \"#utility.yul\":4556:4558   */\n  0x20\n    /* \"#utility.yul\":4551:4554   */\n  dup3\n    /* \"#utility.yul\":4547:4559   */\n  add\n    /* \"#utility.yul\":4540:4559   */\n  swap1\n  pop\n    /* \"#utility.yul\":4199:4565   */\n  swap2\n  swap1\n  pop\n  jump\t// out\n    /* \"#utility.yul\":4571:4990   */\ntag_8:\n    /* \"#utility.yul\":4737:4741   */\n  0x00\n    /* \"#utility.yul\":4775:4777   */\n  0x20\n    /* \"#utility.yul\":4764:4773   */\n  dup3\n    /* \"#utility.yul\":4760:4778   */\n  add\n    /* \"#utility.yul\":4752:4778   */\n  swap1\n  pop\n    /* \"#utility.yul\":4824:4833   */\n  dup2\n    /* \"#utility.yul\":4818:4822   */\n  dup2\n    /* \"#utility.yul\":4814:4834   */\n  sub\n    /* \"#utility.yul\":4810:4811   */\n  0x00\n    /* \"#utility.yul\":4799:4808   */\n  dup4\n    /* \"#utility.yul\":4795:4812   */\n  add\n    /* \"#utility.yul\":4788:4835   */\n  mstore\n    /* \"#utility.yul\":4852:4983   */\n  tag_97\n    /* \"#utility.yul\":4978:4982   */\n  dup2\n    /* \"#utility.yul\":4852:4983   */\n  tag_41\n  jump\t// in\ntag_97:\n    /* \"#utility.yul\":4844:4983   */\n  swap1\n  pop\n    /* \"#utility.yul\":4571:4990   */\n  swap2\n  swap1\n  pop\n  jump\t// out\n    /* \"#utility.yul\":4996:5176   */\ntag_14:\n    /* \"#utility.yul\":5044:5121   */\n  0x4e487b7100000000000000000000000000000000000000000000000000000000\n    /* \"#utility.yul\":5041:5042   */\n  0x00\n    /* \"#utility.yul\":5034:5122   */\n  mstore\n    /* \"#utility.yul\":5141:5145   */\n  0x32\n    /* \"#utility.yul\":5138:5139   */\n  0x04\n    /* \"#utility.yul\":5131:5146   */\n  mstore\n    /* \"#utility.yul\":5165:5169   */\n  0x24\n    /* \"#utility.yul\":5162:5163   */\n  0x00\n    /* \"#utility.yul\":5155:5170   */\n  revert\n    /* \"#utility.yul\":5182:5345   */\ntag_42:\n    /* \"#utility.yul\":5322:5337   */\n  0x496e76616c6964206f776e657200000000000000000000000000000000000000\n    /* \"#utility.yul\":5318:5319   */\n  0x00\n    /* \"#utility.yul\":5310:5316   */\n  dup3\n    /* \"#utility.yul\":5306:5320   */\n  add\n    /* \"#utility.yul\":5299:5338   */\n  mstore\n    /* \"#utility.yul\":5182:5345   */\n  pop\n  jump\t// out\n    /* \"#utility.yul\":5351:5717   */\ntag_43:\n    /* \"#utility.yul\":5493:5496   */\n  0x00\n    /* \"#utility.yul\":5514:5581   */\n  tag_101\n    /* \"#utility.yul\":5578:5580   */\n  0x0d\n    /* \"#utility.yul\":5573:5576   */\n  dup4\n    /* \"#utility.yul\":5514:5581   */\n  tag_39\n  jump\t// in\ntag_101:\n    /* \"#utility.yul\":5507:5581   */\n  swap2\n  pop\n    /* \"#utility.yul\":5590:5683   */\n  tag_102\n    /* \"#utility.yul\":5679:5682   */\n  dup3\n    /* \"#utility.yul\":5590:5683   */\n  tag_42\n  jump\t// in\ntag_102:\n    /* \"#utility.yul\":5708:5710   */\n  0x20\n    /* \"#utility.yul\":5703:5706   */\n  dup3\n    /* \"#utility.yul\":5699:5711   */\n  add\n    /* \"#utility.yul\":5692:5711   */\n  swap1\n  pop\n    /* \"#utility.yul\":5351:5717   */\n  swap2\n  swap1\n  pop\n  jump\t// out\n    /* \"#utility.yul\":5723:6142   */\ntag_17:\n    /* \"#utility.yul\":5889:5893   */\n  0x00\n    /* \"#utility.yul\":5927:5929   */\n  0x20\n    /* \"#utility.yul\":5916:5925   */\n  dup3\n    /* \"#utility.yul\":5912:5930   */\n  add\n    /* \"#utility.yul\":5904:5930   */\n  swap1\n  pop\n    /* \"#utility.yul\":5976:5985   */\n  dup2\n    /* \"#utility.yul\":5970:5974   */\n  dup2\n    /* \"#utility.yul\":5966:5986   */\n  sub\n    /* \"#utility.yul\":5962:5963   */\n  0x00\n    /* \"#utility.yul\":5951:5960   */\n  dup4\n    /* \"#utility.yul\":5947:5964   */\n  add\n    /* \"#utility.yul\":5940:5987   */\n  mstore\n    /* \"#utility.yul\":6004:6135   */\n  tag_104\n    /* \"#utility.yul\":6130:6134   */\n  dup2\n    /* \"#utility.yul\":6004:6135   */\n  tag_43\n  jump\t// in\ntag_104:\n    /* \"#utility.yul\":5996:6135   */\n  swap1\n  pop\n    /* \"#utility.yul\":5723:6142   */\n  swap2\n  swap1\n  pop\n  jump\t// out\n    /* \"#utility.yul\":6148:6313   */\ntag_44:\n    /* \"#utility.yul\":6288:6305   */\n  0x4475706c6963617465206f776e65720000000000000000000000000000000000\n    /* \"#utility.yul\":6284:6285   */\n  0x00\n    /* \"#utility.yul\":6276:6282   */\n  dup3\n    /* \"#utility.yul\":6272:6286   */\n  add\n    /* \"#utility.yul\":6265:6306   */\n  mstore\n    /* \"#utility.yul\":6148:6313   */\n  pop\n  jump\t// out\n    /* \"#utility.yul\":6319:6685   */\ntag_45:\n    /* \"#utility.yul\":6461:6464   */\n  0x00\n    /* \"#utility.yul\":6482:6549   */\n  tag_107\n    /* \"#utility.yul\":6546:6548   */\n  0x0f\n    /* \"#utility.yul\":6541:6544   */\n  dup4\n    /* \"#utility.yul\":6482:6549   */\n  tag_39\n  jump\t// in\ntag_107:\n    /* \"#utility.yul\":6475:6549   */\n  swap2\n  pop\n    /* \"#utility.yul\":6558:6651   */\n  tag_108\n    /* \"#utility.yul\":6647:6650   */\n  dup3\n    /* \"#utility.yul\":6558:6651   */\n  tag_44\n  jump\t// in\ntag_108:\n    /* \"#utility.yul\":6676:6678   */\n  0x20\n    /* \"#utility.yul\":6671:6674   */\n  dup3\n    /* \"#utility.yul\":6667:6679   */\n  add\n    /* \"#utility.yul\":6660:6679   */\n  swap1\n  pop\n    /* \"#utility.yul\":6319:6685   */\n  swap2\n  swap1\n  pop\n  jump\t// out\n    /* \"#utility.yul\":6691:7110   */\ntag_20:\n    /* \"#utility.yul\":6857:6861   */\n  0x00\n    /* \"#utility.yul\":6895:6897   */\n  0x20\n    /* \"#utility.yul\":6884:6893   */\n  dup3\n    /* \"#utility.yul\":6880:6898   */\n  add\n    /* \"#utility.yul\":6872:6898   */\n  swap1\n  pop\n    /* \"#utility.yul\":6944:6953   */\n  dup2\n    /* \"#utility.yul\":6938:6942   */\n  dup2\n    /* \"#utility.yul\":6934:6954   */\n  sub\n    /* \"#utility.yul\":6930:6931   */\n  0x00\n    /* \"#utility.yul\":6919:6928   */\n  dup4\n    /* \"#utility.yul\":6915:6932   */\n  add\n    /* \"#utility.yul\":6908:6955   */\n  mstore\n    /* \"#utility.yul\":6972:7103   */\n  tag_110\n    /* \"#utility.yul\":7098:7102   */\n  dup2\n    /* \"#utility.yul\":6972:7103   */\n  tag_45\n  jump\t// in\ntag_110:\n    /* \"#utility.yul\":6964:7103   */\n  swap1\n  pop\n    /* \"#utility.yul\":6691:7110   */\n  swap2\n  swap1\n  pop\n  jump\t// out\n    /* \"Multi_Owner_Wallet.sol\":60:2203  contract MultiOwnerWallet {... */\ntag_22:\n  dataSize(sub_0)\n  dup1\n  dataOffset(sub_0)\n  0x00\n  codecopy\n  0x00\n  return\nstop\n\nsub_0: assembly {\n        /* \"Multi_Owner_Wallet.sol\":60:2203  contract MultiOwnerWallet {... */\n      mstore(0x40, 0x80)\n      jumpi(tag_1, lt(calldatasize, 0x04))\n      shr(0xe0, calldataload(0x00))\n      dup1\n      0x6884d0a6\n      gt\n      tag_14\n      jumpi\n      dup1\n      0x6884d0a6\n      eq\n      tag_8\n      jumpi\n      dup1\n      0x9430b496\n      eq\n      tag_9\n      jumpi\n      dup1\n      0xa0e67e2b\n      eq\n      tag_10\n      jumpi\n      dup1\n      0xc1d4691a\n      eq\n      tag_11\n      jumpi\n      dup1\n      0xd0e30db0\n      eq\n      tag_12\n      jumpi\n      dup1\n      0xe6e268f4\n      eq\n      tag_13\n      jumpi\n      jump(tag_1)\n    tag_14:\n      dup1\n      0x025e7c27\n      eq\n      tag_2\n      jumpi\n      dup1\n      0x12065fe0\n      eq\n      tag_3\n      jumpi\n      dup1\n      0x21739779\n      eq\n      tag_4\n      jumpi\n      dup1\n      0x2a853664\n      eq\n      tag_5\n      jumpi\n      dup1\n      0x2c8b8bb3\n      eq\n      tag_6\n      jumpi\n      dup1\n      0x2f54bf6e\n      eq\n      tag_7\n      jumpi\n    tag_1:\n      revert(0x00, 0x00)\n        /* \"Multi_Owner_Wallet.sol\":95:118  address[] public owners */\n    tag_2:\n      callvalue\n      dup1\n      iszero\n      tag_15\n      jumpi\n      revert(0x00, 0x00)\n    tag_15:\n      pop\n      tag_16\n      0x04\n      dup1\n      calldatasize\n      sub\n      dup2\n      add\n      swap1\n      tag_17\n      swap2\n      swap1\n      tag_18\n      jump\t// in\n    tag_17:\n      tag_19\n      jump\t// in\n    tag_16:\n      mload(0x40)\n      tag_20\n      swap2\n      swap1\n      tag_21\n      jump\t// in\n    tag_20:\n      mload(0x40)\n      dup1\n      swap2\n      sub\n      swap1\n      return\n        /* \"Multi_Owner_Wallet.sol\":2003:2104  function getBalance() external view returns (uint256) {... */\n    tag_3:\n      callvalue\n      dup1\n      iszero\n      tag_22\n      jumpi\n      revert(0x00, 0x00)\n    tag_22:\n      pop\n      tag_23\n      tag_24\n      jump\t// in\n    tag_23:\n      mload(0x40)\n      tag_25\n      swap2\n      swap1\n      tag_26\n      jump\t// in\n    tag_25:\n      mload(0x40)\n      dup1\n      swap2\n      sub\n      swap1\n      return\n        /* \"Multi_Owner_Wallet.sol\":1013:1491  function requestWithdrawal(uint256 amount, address to)... */\n    tag_4:\n      callvalue\n      dup1\n      iszero\n      tag_27\n      jumpi\n      revert(0x00, 0x00)\n    tag_27:\n      pop\n      tag_28\n      0x04\n      dup1\n      calldatasize\n      sub\n      dup2\n      add\n      swap1\n      tag_29\n      swap2\n      swap1\n      tag_30\n      jump\t// in\n    tag_29:\n      tag_31\n      jump\t// in\n    tag_28:\n      stop\n        /* \"Multi_Owner_Wallet.sol\":285:316  bool public withdrawalRequested */\n    tag_5:\n      callvalue\n      dup1\n      iszero\n      tag_32\n      jumpi\n      revert(0x00, 0x00)\n    tag_32:\n      pop\n      tag_33\n      tag_34\n      jump\t// in\n    tag_33:\n      mload(0x40)\n      tag_35\n      swap2\n      swap1\n      tag_36\n      jump\t// in\n    tag_35:\n      mload(0x40)\n      dup1\n      swap2\n      sub\n      swap1\n      return\n        /* \"Multi_Owner_Wallet.sol\":1504:1995  function approveWithdrawal() external onlyOwner {... */\n    tag_6:\n      callvalue\n      dup1\n      iszero\n      tag_37\n      jumpi\n      revert(0x00, 0x00)\n    tag_37:\n      pop\n      tag_38\n      tag_39\n      jump\t// in\n    tag_38:\n      stop\n        /* \"Multi_Owner_Wallet.sol\":142:181  mapping(address => bool) public isOwner */\n    tag_7:\n      callvalue\n      dup1\n      iszero\n      tag_40\n      jumpi\n      revert(0x00, 0x00)\n    tag_40:\n      pop\n      tag_41\n      0x04\n      dup1\n      calldatasize\n      sub\n      dup2\n      add\n      swap1\n      tag_42\n      swap2\n      swap1\n      tag_43\n      jump\t// in\n    tag_42:\n      tag_44\n      jump\t// in\n    tag_41:\n      mload(0x40)\n      tag_45\n      swap2\n      swap1\n      tag_36\n      jump\t// in\n    tag_45:\n      mload(0x40)\n      dup1\n      swap2\n      sub\n      swap1\n      return\n        /* \"Multi_Owner_Wallet.sol\":382:410  uint256 public approvalCount */\n    tag_8:\n      callvalue\n      dup1\n      iszero\n      tag_46\n      jumpi\n      revert(0x00, 0x00)\n    tag_46:\n      pop\n      tag_47\n      tag_48\n      jump\t// in\n    tag_47:\n      mload(0x40)\n      tag_49\n      swap2\n      swap1\n      tag_26\n      jump\t// in\n    tag_49:\n      mload(0x40)\n      dup1\n      swap2\n      sub\n      swap1\n      return\n        /* \"Multi_Owner_Wallet.sol\":334:374  mapping(address => bool) public approval */\n    tag_9:\n      callvalue\n      dup1\n      iszero\n      tag_50\n      jumpi\n      revert(0x00, 0x00)\n    tag_50:\n      pop\n      tag_51\n      0x04\n      dup1\n      calldatasize\n      sub\n      dup2\n      add\n      swap1\n      tag_52\n      swap2\n      swap1\n      tag_43\n      jump\t// in\n    tag_52:\n      tag_53\n      jump\t// in\n    tag_51:\n      mload(0x40)\n      tag_54\n      swap2\n      swap1\n      tag_36\n      jump\t// in\n    tag_54:\n      mload(0x40)\n      dup1\n      swap2\n      sub\n      swap1\n      return\n        /* \"Multi_Owner_Wallet.sol\":2112:2198  function getOwners() external view returns (address[] memory) {... */\n    tag_10:\n      callvalue\n      dup1\n      iszero\n      tag_55\n      jumpi\n      revert(0x00, 0x00)\n    tag_55:\n      pop\n      tag_56\n      tag_57\n      jump\t// in\n    tag_56:\n      mload(0x40)\n      tag_58\n      swap2\n      swap1\n      tag_59\n      jump\t// in\n    tag_58:\n      mload(0x40)\n      dup1\n      swap2\n      sub\n      swap1\n      return\n        /* \"Multi_Owner_Wallet.sol\":238:265  address public withdrawalTo */\n    tag_11:\n      callvalue\n      dup1\n      iszero\n      tag_60\n      jumpi\n      revert(0x00, 0x00)\n    tag_60:\n      pop\n      tag_61\n      tag_62\n      jump\t// in\n    tag_61:\n      mload(0x40)\n      tag_63\n      swap2\n      swap1\n      tag_21\n      jump\t// in\n    tag_63:\n      mload(0x40)\n      dup1\n      swap2\n      sub\n      swap1\n      return\n        /* \"Multi_Owner_Wallet.sol\":957:1005  function deposit() external payable onlyOwner {} */\n    tag_12:\n      tag_64\n      tag_65\n      jump\t// in\n    tag_64:\n      stop\n        /* \"Multi_Owner_Wallet.sol\":191:222  uint256 public withdrawalAmount */\n    tag_13:\n      callvalue\n      dup1\n      iszero\n      tag_66\n      jumpi\n      revert(0x00, 0x00)\n    tag_66:\n      pop\n      tag_67\n      tag_68\n      jump\t// in\n    tag_67:\n      mload(0x40)\n      tag_69\n      swap2\n      swap1\n      tag_26\n      jump\t// in\n    tag_69:\n      mload(0x40)\n      dup1\n      swap2\n      sub\n      swap1\n      return\n        /* \"Multi_Owner_Wallet.sol\":95:118  address[] public owners */\n    tag_19:\n      0x00\n      dup2\n      dup2\n      sload\n      dup2\n      lt\n      tag_70\n      jumpi\n      0x00\n      dup1\n      revert\n    tag_70:\n      swap1\n      0x00\n      mstore\n      keccak256(0x00, 0x20)\n      add\n      0x00\n      swap2\n      pop\n      sload\n      swap1\n      0x0100\n      exp\n      swap1\n      div\n      0xffffffffffffffffffffffffffffffffffffffff\n      and\n      dup2\n      jump\t// out\n        /* \"Multi_Owner_Wallet.sol\":2003:2104  function getBalance() external view returns (uint256) {... */\n    tag_24:\n        /* \"Multi_Owner_Wallet.sol\":2048:2055  uint256 */\n      0x00\n        /* \"Multi_Owner_Wallet.sol\":2075:2096  address(this).balance */\n      selfbalance\n        /* \"Multi_Owner_Wallet.sol\":2068:2096  return address(this).balance */\n      swap1\n      pop\n        /* \"Multi_Owner_Wallet.sol\":2003:2104  function getBalance() external view returns (uint256) {... */\n      swap1\n      jump\t// out\n        /* \"Multi_Owner_Wallet.sol\":1013:1491  function requestWithdrawal(uint256 amount, address to)... */\n    tag_31:\n        /* \"Multi_Owner_Wallet.sol\":893:900  isOwner */\n      0x01\n        /* \"Multi_Owner_Wallet.sol\":893:912  isOwner[msg.sender] */\n      0x00\n        /* \"Multi_Owner_Wallet.sol\":901:911  msg.sender */\n      caller\n        /* \"Multi_Owner_Wallet.sol\":893:912  isOwner[msg.sender] */\n      0xffffffffffffffffffffffffffffffffffffffff\n      and\n      0xffffffffffffffffffffffffffffffffffffffff\n      and\n      dup2\n      mstore\n      0x20\n      add\n      swap1\n      dup2\n      mstore\n      0x20\n      add\n      0x00\n      keccak256\n      0x00\n      swap1\n      sload\n      swap1\n      0x0100\n      exp\n      swap1\n      div\n      0xff\n      and\n        /* \"Multi_Owner_Wallet.sol\":885:929  require(isOwner[msg.sender], \"Not an owner\") */\n      tag_74\n      jumpi\n      mload(0x40)\n      0x08c379a000000000000000000000000000000000000000000000000000000000\n      dup2\n      mstore\n      0x04\n      add\n      tag_75\n      swap1\n      tag_76\n      jump\t// in\n    tag_75:\n      mload(0x40)\n      dup1\n      swap2\n      sub\n      swap1\n      revert\n    tag_74:\n        /* \"Multi_Owner_Wallet.sol\":1130:1149  withdrawalRequested */\n      0x03\n      0x14\n      swap1\n      sload\n      swap1\n      0x0100\n      exp\n      swap1\n      div\n      0xff\n      and\n        /* \"Multi_Owner_Wallet.sol\":1129:1149  !withdrawalRequested */\n      iszero\n        /* \"Multi_Owner_Wallet.sol\":1121:1171  require(!withdrawalRequested, \"Already requested\") */\n      tag_78\n      jumpi\n      mload(0x40)\n      0x08c379a000000000000000000000000000000000000000000000000000000000\n      dup2\n      mstore\n      0x04\n      add\n      tag_79\n      swap1\n      tag_80\n      jump\t// in\n    tag_79:\n      mload(0x40)\n      dup1\n      swap2\n      sub\n      swap1\n      revert\n    tag_78:\n        /* \"Multi_Owner_Wallet.sol\":1215:1221  amount */\n      dup2\n        /* \"Multi_Owner_Wallet.sol\":1190:1211  address(this).balance */\n      selfbalance\n        /* \"Multi_Owner_Wallet.sol\":1190:1221  address(this).balance >= amount */\n      lt\n      iszero\n        /* \"Multi_Owner_Wallet.sol\":1182:1242  require(address(this).balance >= amount, \"Not enough funds\") */\n      tag_81\n      jumpi\n      mload(0x40)\n      0x08c379a000000000000000000000000000000000000000000000000000000000\n      dup2\n      mstore\n      0x04\n      add\n      tag_82\n      swap1\n      tag_83\n      jump\t// in\n    tag_82:\n      mload(0x40)\n      dup1\n      swap2\n      sub\n      swap1\n      revert\n    tag_81:\n        /* \"Multi_Owner_Wallet.sol\":1274:1280  amount */\n      dup2\n        /* \"Multi_Owner_Wallet.sol\":1255:1271  withdrawalAmount */\n      0x02\n        /* \"Multi_Owner_Wallet.sol\":1255:1280  withdrawalAmount = amount */\n      dup2\n      swap1\n      sstore\n      pop\n        /* \"Multi_Owner_Wallet.sol\":1306:1308  to */\n      dup1\n        /* \"Multi_Owner_Wallet.sol\":1291:1303  withdrawalTo */\n      0x03\n      0x00\n        /* \"Multi_Owner_Wallet.sol\":1291:1308  withdrawalTo = to */\n      0x0100\n      exp\n      dup2\n      sload\n      dup2\n      0xffffffffffffffffffffffffffffffffffffffff\n      mul\n      not\n      and\n      swap1\n      dup4\n      0xffffffffffffffffffffffffffffffffffffffff\n      and\n      mul\n      or\n      swap1\n      sstore\n      pop\n        /* \"Multi_Owner_Wallet.sol\":1341:1345  true */\n      0x01\n        /* \"Multi_Owner_Wallet.sol\":1319:1338  withdrawalRequested */\n      0x03\n      0x14\n        /* \"Multi_Owner_Wallet.sol\":1319:1345  withdrawalRequested = true */\n      0x0100\n      exp\n      dup2\n      sload\n      dup2\n      0xff\n      mul\n      not\n      and\n      swap1\n      dup4\n      iszero\n      iszero\n      mul\n      or\n      swap1\n      sstore\n      pop\n        /* \"Multi_Owner_Wallet.sol\":1363:1372  uint256 i */\n      0x00\n        /* \"Multi_Owner_Wallet.sol\":1375:1376  0 */\n      0x00\n        /* \"Multi_Owner_Wallet.sol\":1363:1376  uint256 i = 0 */\n      swap1\n      pop\n        /* \"Multi_Owner_Wallet.sol\":1358:1456  for (uint256 i = 0; i < owners.length; i++) {... */\n    tag_84:\n        /* \"Multi_Owner_Wallet.sol\":1382:1388  owners */\n      0x00\n        /* \"Multi_Owner_Wallet.sol\":1382:1395  owners.length */\n      dup1\n      sload\n      swap1\n      pop\n        /* \"Multi_Owner_Wallet.sol\":1378:1379  i */\n      dup2\n        /* \"Multi_Owner_Wallet.sol\":1378:1395  i < owners.length */\n      lt\n        /* \"Multi_Owner_Wallet.sol\":1358:1456  for (uint256 i = 0; i < owners.length; i++) {... */\n      iszero\n      tag_85\n      jumpi\n        /* \"Multi_Owner_Wallet.sol\":1439:1444  false */\n      0x00\n        /* \"Multi_Owner_Wallet.sol\":1417:1425  approval */\n      0x04\n        /* \"Multi_Owner_Wallet.sol\":1417:1436  approval[owners[i]] */\n      0x00\n        /* \"Multi_Owner_Wallet.sol\":1426:1432  owners */\n      0x00\n        /* \"Multi_Owner_Wallet.sol\":1433:1434  i */\n      dup5\n        /* \"Multi_Owner_Wallet.sol\":1426:1435  owners[i] */\n      dup2\n      sload\n      dup2\n      lt\n      tag_87\n      jumpi\n      tag_88\n      tag_89\n      jump\t// in\n    tag_88:\n    tag_87:\n      swap1\n      0x00\n      mstore\n      keccak256(0x00, 0x20)\n      add\n      0x00\n      swap1\n      sload\n      swap1\n      0x0100\n      exp\n      swap1\n      div\n      0xffffffffffffffffffffffffffffffffffffffff\n      and\n        /* \"Multi_Owner_Wallet.sol\":1417:1436  approval[owners[i]] */\n      0xffffffffffffffffffffffffffffffffffffffff\n      and\n      0xffffffffffffffffffffffffffffffffffffffff\n      and\n      dup2\n      mstore\n      0x20\n      add\n      swap1\n      dup2\n      mstore\n      0x20\n      add\n      0x00\n      keccak256\n      0x00\n        /* \"Multi_Owner_Wallet.sol\":1417:1444  approval[owners[i]] = false */\n      0x0100\n      exp\n      dup2\n      sload\n      dup2\n      0xff\n      mul\n      not\n      and\n      swap1\n      dup4\n      iszero\n      iszero\n      mul\n      or\n      swap1\n      sstore\n      pop\n        /* \"Multi_Owner_Wallet.sol\":1397:1400  i++ */\n      dup1\n      dup1\n      0x01\n      add\n      swap2\n      pop\n      pop\n        /* \"Multi_Owner_Wallet.sol\":1358:1456  for (uint256 i = 0; i < owners.length; i++) {... */\n      jump(tag_84)\n    tag_85:\n      pop\n        /* \"Multi_Owner_Wallet.sol\":1482:1483  0 */\n      0x00\n        /* \"Multi_Owner_Wallet.sol\":1466:1479  approvalCount */\n      0x05\n        /* \"Multi_Owner_Wallet.sol\":1466:1483  approvalCount = 0 */\n      dup2\n      swap1\n      sstore\n      pop\n        /* \"Multi_Owner_Wallet.sol\":1013:1491  function requestWithdrawal(uint256 amount, address to)... */\n      pop\n      pop\n      jump\t// out\n        /* \"Multi_Owner_Wallet.sol\":285:316  bool public withdrawalRequested */\n    tag_34:\n      0x03\n      0x14\n      swap1\n      sload\n      swap1\n      0x0100\n      exp\n      swap1\n      div\n      0xff\n      and\n      dup2\n      jump\t// out\n        /* \"Multi_Owner_Wallet.sol\":1504:1995  function approveWithdrawal() external onlyOwner {... */\n    tag_39:\n        /* \"Multi_Owner_Wallet.sol\":893:900  isOwner */\n      0x01\n        /* \"Multi_Owner_Wallet.sol\":893:912  isOwner[msg.sender] */\n      0x00\n        /* \"Multi_Owner_Wallet.sol\":901:911  msg.sender */\n      caller\n        /* \"Multi_Owner_Wallet.sol\":893:912  isOwner[msg.sender] */\n      0xffffffffffffffffffffffffffffffffffffffff\n      and\n      0xffffffffffffffffffffffffffffffffffffffff\n      and\n      dup2\n      mstore\n      0x20\n      add\n      swap1\n      dup2\n      mstore\n      0x20\n      add\n      0x00\n      keccak256\n      0x00\n      swap1\n      sload\n      swap1\n      0x0100\n      exp\n      swap1\n      div\n      0xff\n      and\n        /* \"Multi_Owner_Wallet.sol\":885:929  require(isOwner[msg.sender], \"Not an owner\") */\n      tag_92\n      jumpi\n      mload(0x40)\n      0x08c379a000000000000000000000000000000000000000000000000000000000\n      dup2\n      mstore\n      0x04\n      add\n      tag_93\n      swap1\n      tag_76\n      jump\t// in\n    tag_93:\n      mload(0x40)\n      dup1\n      swap2\n      sub\n      swap1\n      revert\n    tag_92:\n        /* \"Multi_Owner_Wallet.sol\":1571:1590  withdrawalRequested */\n      0x03\n      0x14\n      swap1\n      sload\n      swap1\n      0x0100\n      exp\n      swap1\n      div\n      0xff\n      and\n        /* \"Multi_Owner_Wallet.sol\":1563:1618  require(withdrawalRequested, \"No withdrawal requested\") */\n      tag_95\n      jumpi\n      mload(0x40)\n      0x08c379a000000000000000000000000000000000000000000000000000000000\n      dup2\n      mstore\n      0x04\n      add\n      tag_96\n      swap1\n      tag_97\n      jump\t// in\n    tag_96:\n      mload(0x40)\n      dup1\n      swap2\n      sub\n      swap1\n      revert\n    tag_95:\n        /* \"Multi_Owner_Wallet.sol\":1638:1646  approval */\n      0x04\n        /* \"Multi_Owner_Wallet.sol\":1638:1658  approval[msg.sender] */\n      0x00\n        /* \"Multi_Owner_Wallet.sol\":1647:1657  msg.sender */\n      caller\n        /* \"Multi_Owner_Wallet.sol\":1638:1658  approval[msg.sender] */\n      0xffffffffffffffffffffffffffffffffffffffff\n      and\n      0xffffffffffffffffffffffffffffffffffffffff\n      and\n      dup2\n      mstore\n      0x20\n      add\n      swap1\n      dup2\n      mstore\n      0x20\n      add\n      0x00\n      keccak256\n      0x00\n      swap1\n      sload\n      swap1\n      0x0100\n      exp\n      swap1\n      div\n      0xff\n      and\n        /* \"Multi_Owner_Wallet.sol\":1637:1658  !approval[msg.sender] */\n      iszero\n        /* \"Multi_Owner_Wallet.sol\":1629:1679  require(!approval[msg.sender], \"Already approved\") */\n      tag_98\n      jumpi\n      mload(0x40)\n      0x08c379a000000000000000000000000000000000000000000000000000000000\n      dup2\n      mstore\n      0x04\n      add\n      tag_99\n      swap1\n      tag_100\n      jump\t// in\n    tag_99:\n      mload(0x40)\n      dup1\n      swap2\n      sub\n      swap1\n      revert\n    tag_98:\n        /* \"Multi_Owner_Wallet.sol\":1715:1719  true */\n      0x01\n        /* \"Multi_Owner_Wallet.sol\":1692:1700  approval */\n      0x04\n        /* \"Multi_Owner_Wallet.sol\":1692:1712  approval[msg.sender] */\n      0x00\n        /* \"Multi_Owner_Wallet.sol\":1701:1711  msg.sender */\n      caller\n        /* \"Multi_Owner_Wallet.sol\":1692:1712  approval[msg.sender] */\n      0xffffffffffffffffffffffffffffffffffffffff\n      and\n      0xffffffffffffffffffffffffffffffffffffffff\n      and\n      dup2\n      mstore\n      0x20\n      add\n      swap1\n      dup2\n      mstore\n      0x20\n      add\n      0x00\n      keccak256\n      0x00\n        /* \"Multi_Owner_Wallet.sol\":1692:1719  approval[msg.sender] = true */\n      0x0100\n      exp\n      dup2\n      sload\n      dup2\n      0xff\n      mul\n      not\n      and\n      swap1\n      dup4\n      iszero\n      iszero\n      mul\n      or\n      swap1\n      sstore\n      pop\n        /* \"Multi_Owner_Wallet.sol\":1730:1743  approvalCount */\n      0x05\n      0x00\n        /* \"Multi_Owner_Wallet.sol\":1730:1745  approvalCount++ */\n      dup2\n      sload\n      dup1\n      swap3\n      swap2\n      swap1\n      tag_101\n      swap1\n      tag_102\n      jump\t// in\n    tag_101:\n      swap2\n      swap1\n      pop\n      sstore\n      pop\n        /* \"Multi_Owner_Wallet.sol\":1779:1785  owners */\n      0x00\n        /* \"Multi_Owner_Wallet.sol\":1779:1792  owners.length */\n      dup1\n      sload\n      swap1\n      pop\n        /* \"Multi_Owner_Wallet.sol\":1762:1775  approvalCount */\n      sload(0x05)\n        /* \"Multi_Owner_Wallet.sol\":1762:1792  approvalCount == owners.length */\n      sub\n        /* \"Multi_Owner_Wallet.sol\":1758:1988  if (approvalCount == owners.length) {... */\n      tag_103\n      jumpi\n        /* \"Multi_Owner_Wallet.sol\":1817:1829  withdrawalTo */\n      0x03\n      0x00\n      swap1\n      sload\n      swap1\n      0x0100\n      exp\n      swap1\n      div\n      0xffffffffffffffffffffffffffffffffffffffff\n      and\n        /* \"Multi_Owner_Wallet.sol\":1809:1839  payable(withdrawalTo).transfer */\n      0xffffffffffffffffffffffffffffffffffffffff\n      and\n        /* \"Multi_Owner_Wallet.sol\":1809:1857  payable(withdrawalTo).transfer(withdrawalAmount) */\n      0x08fc\n        /* \"Multi_Owner_Wallet.sol\":1840:1856  withdrawalAmount */\n      sload(0x02)\n        /* \"Multi_Owner_Wallet.sol\":1809:1857  payable(withdrawalTo).transfer(withdrawalAmount) */\n      swap1\n      dup2\n      iszero\n      mul\n      swap1\n      mload(0x40)\n      0x00\n      mload(0x40)\n      dup1\n      dup4\n      sub\n      dup2\n      dup6\n      dup9\n      dup9\n      call\n      swap4\n      pop\n      pop\n      pop\n      pop\n      iszero\n      dup1\n      iszero\n      tag_105\n      jumpi\n      returndatacopy(0x00, 0x00, returndatasize)\n      revert(0x00, returndatasize)\n    tag_105:\n      pop\n        /* \"Multi_Owner_Wallet.sol\":1896:1901  false */\n      0x00\n        /* \"Multi_Owner_Wallet.sol\":1874:1893  withdrawalRequested */\n      0x03\n      0x14\n        /* \"Multi_Owner_Wallet.sol\":1874:1901  withdrawalRequested = false */\n      0x0100\n      exp\n      dup2\n      sload\n      dup2\n      0xff\n      mul\n      not\n      and\n      swap1\n      dup4\n      iszero\n      iszero\n      mul\n      or\n      swap1\n      sstore\n      pop\n        /* \"Multi_Owner_Wallet.sol\":1935:1936  0 */\n      0x00\n        /* \"Multi_Owner_Wallet.sol\":1916:1932  withdrawalAmount */\n      0x02\n        /* \"Multi_Owner_Wallet.sol\":1916:1936  withdrawalAmount = 0 */\n      dup2\n      swap1\n      sstore\n      pop\n        /* \"Multi_Owner_Wallet.sol\":1974:1975  0 */\n      0x00\n        /* \"Multi_Owner_Wallet.sol\":1951:1963  withdrawalTo */\n      0x03\n      0x00\n        /* \"Multi_Owner_Wallet.sol\":1951:1976  withdrawalTo = address(0) */\n      0x0100\n      exp\n      dup2\n      sload\n      dup2\n      0xffffffffffffffffffffffffffffffffffffffff\n      mul\n      not\n      and\n      swap1\n      dup4\n      0xffffffffffffffffffffffffffffffffffffffff\n      and\n      mul\n      or\n      swap1\n      sstore\n      pop\n        /* \"Multi_Owner_Wallet.sol\":1758:1988  if (approvalCount == owners.length) {... */\n    tag_103:\n        /* \"Multi_Owner_Wallet.sol\":1504:1995  function approveWithdrawal() external onlyOwner {... */\n      jump\t// out\n        /* \"Multi_Owner_Wallet.sol\":142:181  mapping(address => bool) public isOwner */\n    tag_44:\n      mstore(0x20, 0x01)\n      dup1\n      0x00\n      mstore\n      keccak256(0x00, 0x40)\n      0x00\n      swap2\n      pop\n      sload\n      swap1\n      0x0100\n      exp\n      swap1\n      div\n      0xff\n      and\n      dup2\n      jump\t// out\n        /* \"Multi_Owner_Wallet.sol\":382:410  uint256 public approvalCount */\n    tag_48:\n      sload(0x05)\n      dup2\n      jump\t// out\n        /* \"Multi_Owner_Wallet.sol\":334:374  mapping(address => bool) public approval */\n    tag_53:\n      mstore(0x20, 0x04)\n      dup1\n      0x00\n      mstore\n      keccak256(0x00, 0x40)\n      0x00\n      swap2\n      pop\n      sload\n      swap1\n      0x0100\n      exp\n      swap1\n      div\n      0xff\n      and\n      dup2\n      jump\t// out\n        /* \"Multi_Owner_Wallet.sol\":2112:2198  function getOwners() external view returns (address[] memory) {... */\n    tag_57:\n        /* \"Multi_Owner_Wallet.sol\":2156:2172  address[] memory */\n      0x60\n        /* \"Multi_Owner_Wallet.sol\":2188:2194  owners */\n      0x00\n        /* \"Multi_Owner_Wallet.sol\":2181:2194  return owners */\n      dup1\n      sload\n      dup1\n      0x20\n      mul\n      0x20\n      add\n      mload(0x40)\n      swap1\n      dup2\n      add\n      0x40\n      mstore\n      dup1\n      swap3\n      swap2\n      swap1\n      dup2\n      dup2\n      mstore\n      0x20\n      add\n      dup3\n      dup1\n      sload\n      dup1\n      iszero\n      tag_107\n      jumpi\n      0x20\n      mul\n      dup3\n      add\n      swap2\n      swap1\n      0x00\n      mstore\n      keccak256(0x00, 0x20)\n      swap1\n    tag_108:\n      dup2\n      0x00\n      swap1\n      sload\n      swap1\n      0x0100\n      exp\n      swap1\n      div\n      0xffffffffffffffffffffffffffffffffffffffff\n      and\n      0xffffffffffffffffffffffffffffffffffffffff\n      and\n      dup2\n      mstore\n      0x20\n      add\n      swap1\n      0x01\n      add\n      swap1\n      dup1\n      dup4\n      gt\n      tag_108\n      jumpi\n    tag_107:\n      pop\n      pop\n      pop\n      pop\n      pop\n      swap1\n      pop\n        /* \"Multi_Owner_Wallet.sol\":2112:2198  function getOwners() external view returns (address[] memory) {... */\n      swap1\n      jump\t// out\n        /* \"Multi_Owner_Wallet.sol\":238:265  address public withdrawalTo */\n    tag_62:\n      0x03\n      0x00\n      swap1\n      sload\n      swap1\n      0x0100\n      exp\n      swap1\n      div\n      0xffffffffffffffffffffffffffffffffffffffff\n      and\n      dup2\n      jump\t// out\n        /* \"Multi_Owner_Wallet.sol\":957:1005  function deposit() external payable onlyOwner {} */\n    tag_65:\n        /* \"Multi_Owner_Wallet.sol\":893:900  isOwner */\n      0x01\n        /* \"Multi_Owner_Wallet.sol\":893:912  isOwner[msg.sender] */\n      0x00\n        /* \"Multi_Owner_Wallet.sol\":901:911  msg.sender */\n      caller\n        /* \"Multi_Owner_Wallet.sol\":893:912  isOwner[msg.sender] */\n      0xffffffffffffffffffffffffffffffffffffffff\n      and\n      0xffffffffffffffffffffffffffffffffffffffff\n      and\n      dup2\n      mstore\n      0x20\n      add\n      swap1\n      dup2\n      mstore\n      0x20\n      add\n      0x00\n      keccak256\n      0x00\n      swap1\n      sload\n      swap1\n      0x0100\n      exp\n      swap1\n      div\n      0xff\n      and\n        /* \"Multi_Owner_Wallet.sol\":885:929  require(isOwner[msg.sender], \"Not an owner\") */\n      tag_110\n      jumpi\n      mload(0x40)\n      0x08c379a000000000000000000000000000000000000000000000000000000000\n      dup2\n      mstore\n      0x04\n      add\n      tag_111\n      swap1\n      tag_76\n      jump\t// in\n    tag_111:\n      mload(0x40)\n      dup1\n      swap2\n      sub\n      swap1\n      revert\n    tag_110:\n        /* \"Multi_Owner_Wallet.sol\":957:1005  function deposit() external payable onlyOwner {} */\n      jump\t// out\n        /* \"Multi_Owner_Wallet.sol\":191:222  uint256 public withdrawalAmount */\n    tag_68:\n      sload(0x02)\n      dup2\n      jump\t// out\n        /* \"#utility.yul\":88:205   */\n    tag_114:\n        /* \"#utility.yul\":197:198   */\n      0x00\n        /* \"#utility.yul\":194:195   */\n      0x00\n        /* \"#utility.yul\":187:199   */\n      revert\n        /* \"#utility.yul\":334:411   */\n    tag_116:\n        /* \"#utility.yul\":371:378   */\n      0x00\n        /* \"#utility.yul\":400:405   */\n      dup2\n        /* \"#utility.yul\":389:405   */\n      swap1\n      pop\n        /* \"#utility.yul\":334:411   */\n      swap2\n      swap1\n      pop\n      jump\t// out\n        /* \"#utility.yul\":417:539   */\n    tag_117:\n        /* \"#utility.yul\":490:514   */\n      tag_152\n        /* \"#utility.yul\":508:513   */\n      dup2\n        /* \"#utility.yul\":490:514   */\n      tag_116\n      jump\t// in\n    tag_152:\n        /* \"#utility.yul\":483:488   */\n      dup2\n        /* \"#utility.yul\":480:515   */\n      eq\n        /* \"#utility.yul\":470:533   */\n      tag_153\n      jumpi\n        /* \"#utility.yul\":529:530   */\n      0x00\n        /* \"#utility.yul\":526:527   */\n      0x00\n        /* \"#utility.yul\":519:531   */\n      revert\n        /* \"#utility.yul\":470:533   */\n    tag_153:\n        /* \"#utility.yul\":417:539   */\n      pop\n      jump\t// out\n        /* \"#utility.yul\":545:684   */\n    tag_118:\n        /* \"#utility.yul\":591:596   */\n      0x00\n        /* \"#utility.yul\":629:635   */\n      dup2\n        /* \"#utility.yul\":616:636   */\n      calldataload\n        /* \"#utility.yul\":607:636   */\n      swap1\n      pop\n        /* \"#utility.yul\":645:678   */\n      tag_155\n        /* \"#utility.yul\":672:677   */\n      dup2\n        /* \"#utility.yul\":645:678   */\n      tag_117\n      jump\t// in\n    tag_155:\n        /* \"#utility.yul\":545:684   */\n      swap3\n      swap2\n      pop\n      pop\n      jump\t// out\n        /* \"#utility.yul\":690:1019   */\n    tag_18:\n        /* \"#utility.yul\":749:755   */\n      0x00\n        /* \"#utility.yul\":798:800   */\n      0x20\n        /* \"#utility.yul\":786:795   */\n      dup3\n        /* \"#utility.yul\":777:784   */\n      dup5\n        /* \"#utility.yul\":773:796   */\n      sub\n        /* \"#utility.yul\":769:801   */\n      slt\n        /* \"#utility.yul\":766:885   */\n      iszero\n      tag_157\n      jumpi\n        /* \"#utility.yul\":804:883   */\n      tag_158\n      tag_114\n      jump\t// in\n    tag_158:\n        /* \"#utility.yul\":766:885   */\n    tag_157:\n        /* \"#utility.yul\":924:925   */\n      0x00\n        /* \"#utility.yul\":949:1002   */\n      tag_159\n        /* \"#utility.yul\":994:1001   */\n      dup5\n        /* \"#utility.yul\":985:991   */\n      dup3\n        /* \"#utility.yul\":974:983   */\n      dup6\n        /* \"#utility.yul\":970:992   */\n      add\n        /* \"#utility.yul\":949:1002   */\n      tag_118\n      jump\t// in\n    tag_159:\n        /* \"#utility.yul\":939:1002   */\n      swap2\n      pop\n        /* \"#utility.yul\":895:1012   */\n      pop\n        /* \"#utility.yul\":690:1019   */\n      swap3\n      swap2\n      pop\n      pop\n      jump\t// out\n        /* \"#utility.yul\":1025:1151   */\n    tag_119:\n        /* \"#utility.yul\":1062:1069   */\n      0x00\n        /* \"#utility.yul\":1102:1144   */\n      0xffffffffffffffffffffffffffffffffffffffff\n        /* \"#utility.yul\":1095:1100   */\n      dup3\n        /* \"#utility.yul\":1091:1145   */\n      and\n        /* \"#utility.yul\":1080:1145   */\n      swap1\n      pop\n        /* \"#utility.yul\":1025:1151   */\n      swap2\n      swap1\n      pop\n      jump\t// out\n        /* \"#utility.yul\":1157:1253   */\n    tag_120:\n        /* \"#utility.yul\":1194:1201   */\n      0x00\n        /* \"#utility.yul\":1223:1247   */\n      tag_162\n        /* \"#utility.yul\":1241:1246   */\n      dup3\n        /* \"#utility.yul\":1223:1247   */\n      tag_119\n      jump\t// in\n    tag_162:\n        /* \"#utility.yul\":1212:1247   */\n      swap1\n      pop\n        /* \"#utility.yul\":1157:1253   */\n      swap2\n      swap1\n      pop\n      jump\t// out\n        /* \"#utility.yul\":1259:1377   */\n    tag_121:\n        /* \"#utility.yul\":1346:1370   */\n      tag_164\n        /* \"#utility.yul\":1364:1369   */\n      dup2\n        /* \"#utility.yul\":1346:1370   */\n      tag_120\n      jump\t// in\n    tag_164:\n        /* \"#utility.yul\":1341:1344   */\n      dup3\n        /* \"#utility.yul\":1334:1371   */\n      mstore\n        /* \"#utility.yul\":1259:1377   */\n      pop\n      pop\n      jump\t// out\n        /* \"#utility.yul\":1383:1605   */\n    tag_21:\n        /* \"#utility.yul\":1476:1480   */\n      0x00\n        /* \"#utility.yul\":1514:1516   */\n      0x20\n        /* \"#utility.yul\":1503:1512   */\n      dup3\n        /* \"#utility.yul\":1499:1517   */\n      add\n        /* \"#utility.yul\":1491:1517   */\n      swap1\n      pop\n        /* \"#utility.yul\":1527:1598   */\n      tag_166\n        /* \"#utility.yul\":1595:1596   */\n      0x00\n        /* \"#utility.yul\":1584:1593   */\n      dup4\n        /* \"#utility.yul\":1580:1597   */\n      add\n        /* \"#utility.yul\":1571:1577   */\n      dup5\n        /* \"#utility.yul\":1527:1598   */\n      tag_121\n      jump\t// in\n    tag_166:\n        /* \"#utility.yul\":1383:1605   */\n      swap3\n      swap2\n      pop\n      pop\n      jump\t// out\n        /* \"#utility.yul\":1611:1729   */\n    tag_122:\n        /* \"#utility.yul\":1698:1722   */\n      tag_168\n        /* \"#utility.yul\":1716:1721   */\n      dup2\n        /* \"#utility.yul\":1698:1722   */\n      tag_116\n      jump\t// in\n    tag_168:\n        /* \"#utility.yul\":1693:1696   */\n      dup3\n        /* \"#utility.yul\":1686:1723   */\n      mstore\n        /* \"#utility.yul\":1611:1729   */\n      pop\n      pop\n      jump\t// out\n        /* \"#utility.yul\":1735:1957   */\n    tag_26:\n        /* \"#utility.yul\":1828:1832   */\n      0x00\n        /* \"#utility.yul\":1866:1868   */\n      0x20\n        /* \"#utility.yul\":1855:1864   */\n      dup3\n        /* \"#utility.yul\":1851:1869   */\n      add\n        /* \"#utility.yul\":1843:1869   */\n      swap1\n      pop\n        /* \"#utility.yul\":1879:1950   */\n      tag_170\n        /* \"#utility.yul\":1947:1948   */\n      0x00\n        /* \"#utility.yul\":1936:1945   */\n      dup4\n        /* \"#utility.yul\":1932:1949   */\n      add\n        /* \"#utility.yul\":1923:1929   */\n      dup5\n        /* \"#utility.yul\":1879:1950   */\n      tag_122\n      jump\t// in\n    tag_170:\n        /* \"#utility.yul\":1735:1957   */\n      swap3\n      swap2\n      pop\n      pop\n      jump\t// out\n        /* \"#utility.yul\":1963:2085   */\n    tag_123:\n        /* \"#utility.yul\":2036:2060   */\n      tag_172\n        /* \"#utility.yul\":2054:2059   */\n      dup2\n        /* \"#utility.yul\":2036:2060   */\n      tag_120\n      jump\t// in\n    tag_172:\n        /* \"#utility.yul\":2029:2034   */\n      dup2\n        /* \"#utility.yul\":2026:2061   */\n      eq\n        /* \"#utility.yul\":2016:2079   */\n      tag_173\n      jumpi\n        /* \"#utility.yul\":2075:2076   */\n      0x00\n        /* \"#utility.yul\":2072:2073   */\n      0x00\n        /* \"#utility.yul\":2065:2077   */\n      revert\n        /* \"#utility.yul\":2016:2079   */\n    tag_173:\n        /* \"#utility.yul\":1963:2085   */\n      pop\n      jump\t// out\n        /* \"#utility.yul\":2091:2230   */\n    tag_124:\n        /* \"#utility.yul\":2137:2142   */\n      0x00\n        /* \"#utility.yul\":2175:2181   */\n      dup2\n        /* \"#utility.yul\":2162:2182   */\n      calldataload\n        /* \"#utility.yul\":2153:2182   */\n      swap1\n      pop\n        /* \"#utility.yul\":2191:2224   */\n      tag_175\n        /* \"#utility.yul\":2218:2223   */\n      dup2\n        /* \"#utility.yul\":2191:2224   */\n      tag_123\n      jump\t// in\n    tag_175:\n        /* \"#utility.yul\":2091:2230   */\n      swap3\n      swap2\n      pop\n      pop\n      jump\t// out\n        /* \"#utility.yul\":2236:2710   */\n    tag_30:\n        /* \"#utility.yul\":2304:2310   */\n      0x00\n        /* \"#utility.yul\":2312:2318   */\n      0x00\n        /* \"#utility.yul\":2361:2363   */\n      0x40\n        /* \"#utility.yul\":2349:2358   */\n      dup4\n        /* \"#utility.yul\":2340:2347   */\n      dup6\n        /* \"#utility.yul\":2336:2359   */\n      sub\n        /* \"#utility.yul\":2332:2364   */\n      slt\n        /* \"#utility.yul\":2329:2448   */\n      iszero\n      tag_177\n      jumpi\n        /* \"#utility.yul\":2367:2446   */\n      tag_178\n      tag_114\n      jump\t// in\n    tag_178:\n        /* \"#utility.yul\":2329:2448   */\n    tag_177:\n        /* \"#utility.yul\":2487:2488   */\n      0x00\n        /* \"#utility.yul\":2512:2565   */\n      tag_179\n        /* \"#utility.yul\":2557:2564   */\n      dup6\n        /* \"#utility.yul\":2548:2554   */\n      dup3\n        /* \"#utility.yul\":2537:2546   */\n      dup7\n        /* \"#utility.yul\":2533:2555   */\n      add\n        /* \"#utility.yul\":2512:2565   */\n      tag_118\n      jump\t// in\n    tag_179:\n        /* \"#utility.yul\":2502:2565   */\n      swap3\n      pop\n        /* \"#utility.yul\":2458:2575   */\n      pop\n        /* \"#utility.yul\":2614:2616   */\n      0x20\n        /* \"#utility.yul\":2640:2693   */\n      tag_180\n        /* \"#utility.yul\":2685:2692   */\n      dup6\n        /* \"#utility.yul\":2676:2682   */\n      dup3\n        /* \"#utility.yul\":2665:2674   */\n      dup7\n        /* \"#utility.yul\":2661:2683   */\n      add\n        /* \"#utility.yul\":2640:2693   */\n      tag_124\n      jump\t// in\n    tag_180:\n        /* \"#utility.yul\":2630:2693   */\n      swap2\n      pop\n        /* \"#utility.yul\":2585:2703   */\n      pop\n        /* \"#utility.yul\":2236:2710   */\n      swap3\n      pop\n      swap3\n      swap1\n      pop\n      jump\t// out\n        /* \"#utility.yul\":2716:2806   */\n    tag_125:\n        /* \"#utility.yul\":2750:2757   */\n      0x00\n        /* \"#utility.yul\":2793:2798   */\n      dup2\n        /* \"#utility.yul\":2786:2799   */\n      iszero\n        /* \"#utility.yul\":2779:2800   */\n      iszero\n        /* \"#utility.yul\":2768:2800   */\n      swap1\n      pop\n        /* \"#utility.yul\":2716:2806   */\n      swap2\n      swap1\n      pop\n      jump\t// out\n        /* \"#utility.yul\":2812:2921   */\n    tag_126:\n        /* \"#utility.yul\":2893:2914   */\n      tag_183\n        /* \"#utility.yul\":2908:2913   */\n      dup2\n        /* \"#utility.yul\":2893:2914   */\n      tag_125\n      jump\t// in\n    tag_183:\n        /* \"#utility.yul\":2888:2891   */\n      dup3\n        /* \"#utility.yul\":2881:2915   */\n      mstore\n        /* \"#utility.yul\":2812:2921   */\n      pop\n      pop\n      jump\t// out\n        /* \"#utility.yul\":2927:3137   */\n    tag_36:\n        /* \"#utility.yul\":3014:3018   */\n      0x00\n        /* \"#utility.yul\":3052:3054   */\n      0x20\n        /* \"#utility.yul\":3041:3050   */\n      dup3\n        /* \"#utility.yul\":3037:3055   */\n      add\n        /* \"#utility.yul\":3029:3055   */\n      swap1\n      pop\n        /* \"#utility.yul\":3065:3130   */\n      tag_185\n        /* \"#utility.yul\":3127:3128   */\n      0x00\n        /* \"#utility.yul\":3116:3125   */\n      dup4\n        /* \"#utility.yul\":3112:3129   */\n      add\n        /* \"#utility.yul\":3103:3109   */\n      dup5\n        /* \"#utility.yul\":3065:3130   */\n      tag_126\n      jump\t// in\n    tag_185:\n        /* \"#utility.yul\":2927:3137   */\n      swap3\n      swap2\n      pop\n      pop\n      jump\t// out\n        /* \"#utility.yul\":3143:3472   */\n    tag_43:\n        /* \"#utility.yul\":3202:3208   */\n      0x00\n        /* \"#utility.yul\":3251:3253   */\n      0x20\n        /* \"#utility.yul\":3239:3248   */\n      dup3\n        /* \"#utility.yul\":3230:3237   */\n      dup5\n        /* \"#utility.yul\":3226:3249   */\n      sub\n        /* \"#utility.yul\":3222:3254   */\n      slt\n        /* \"#utility.yul\":3219:3338   */\n      iszero\n      tag_187\n      jumpi\n        /* \"#utility.yul\":3257:3336   */\n      tag_188\n      tag_114\n      jump\t// in\n    tag_188:\n        /* \"#utility.yul\":3219:3338   */\n    tag_187:\n        /* \"#utility.yul\":3377:3378   */\n      0x00\n        /* \"#utility.yul\":3402:3455   */\n      tag_189\n        /* \"#utility.yul\":3447:3454   */\n      dup5\n        /* \"#utility.yul\":3438:3444   */\n      dup3\n        /* \"#utility.yul\":3427:3436   */\n      dup6\n        /* \"#utility.yul\":3423:3445   */\n      add\n        /* \"#utility.yul\":3402:3455   */\n      tag_124\n      jump\t// in\n    tag_189:\n        /* \"#utility.yul\":3392:3455   */\n      swap2\n      pop\n        /* \"#utility.yul\":3348:3465   */\n      pop\n        /* \"#utility.yul\":3143:3472   */\n      swap3\n      swap2\n      pop\n      pop\n      jump\t// out\n        /* \"#utility.yul\":3478:3592   */\n    tag_127:\n        /* \"#utility.yul\":3545:3551   */\n      0x00\n        /* \"#utility.yul\":3579:3584   */\n      dup2\n        /* \"#utility.yul\":3573:3585   */\n      mload\n        /* \"#utility.yul\":3563:3585   */\n      swap1\n      pop\n        /* \"#utility.yul\":3478:3592   */\n      swap2\n      swap1\n      pop\n      jump\t// out\n        /* \"#utility.yul\":3598:3782   */\n    tag_128:\n        /* \"#utility.yul\":3697:3708   */\n      0x00\n        /* \"#utility.yul\":3731:3737   */\n      dup3\n        /* \"#utility.yul\":3726:3729   */\n      dup3\n        /* \"#utility.yul\":3719:3738   */\n      mstore\n        /* \"#utility.yul\":3771:3775   */\n      0x20\n        /* \"#utility.yul\":3766:3769   */\n      dup3\n        /* \"#utility.yul\":3762:3776   */\n      add\n        /* \"#utility.yul\":3747:3776   */\n      swap1\n      pop\n        /* \"#utility.yul\":3598:3782   */\n      swap3\n      swap2\n      pop\n      pop\n      jump\t// out\n        /* \"#utility.yul\":3788:3920   */\n    tag_129:\n        /* \"#utility.yul\":3855:3859   */\n      0x00\n        /* \"#utility.yul\":3878:3881   */\n      dup2\n        /* \"#utility.yul\":3870:3881   */\n      swap1\n      pop\n        /* \"#utility.yul\":3908:3912   */\n      0x20\n        /* \"#utility.yul\":3903:3906   */\n      dup3\n        /* \"#utility.yul\":3899:3913   */\n      add\n        /* \"#utility.yul\":3891:3913   */\n      swap1\n      pop\n        /* \"#utility.yul\":3788:3920   */\n      swap2\n      swap1\n      pop\n      jump\t// out\n        /* \"#utility.yul\":3926:4034   */\n    tag_130:\n        /* \"#utility.yul\":4003:4027   */\n      tag_194\n        /* \"#utility.yul\":4021:4026   */\n      dup2\n        /* \"#utility.yul\":4003:4027   */\n      tag_120\n      jump\t// in\n    tag_194:\n        /* \"#utility.yul\":3998:4001   */\n      dup3\n        /* \"#utility.yul\":3991:4028   */\n      mstore\n        /* \"#utility.yul\":3926:4034   */\n      pop\n      pop\n      jump\t// out\n        /* \"#utility.yul\":4040:4219   */\n    tag_131:\n        /* \"#utility.yul\":4109:4119   */\n      0x00\n        /* \"#utility.yul\":4130:4176   */\n      tag_196\n        /* \"#utility.yul\":4172:4175   */\n      dup4\n        /* \"#utility.yul\":4164:4170   */\n      dup4\n        /* \"#utility.yul\":4130:4176   */\n      tag_130\n      jump\t// in\n    tag_196:\n        /* \"#utility.yul\":4208:4212   */\n      0x20\n        /* \"#utility.yul\":4203:4206   */\n      dup4\n        /* \"#utility.yul\":4199:4213   */\n      add\n        /* \"#utility.yul\":4185:4213   */\n      swap1\n      pop\n        /* \"#utility.yul\":4040:4219   */\n      swap3\n      swap2\n      pop\n      pop\n      jump\t// out\n        /* \"#utility.yul\":4225:4338   */\n    tag_132:\n        /* \"#utility.yul\":4295:4299   */\n      0x00\n        /* \"#utility.yul\":4327:4331   */\n      0x20\n        /* \"#utility.yul\":4322:4325   */\n      dup3\n        /* \"#utility.yul\":4318:4332   */\n      add\n        /* \"#utility.yul\":4310:4332   */\n      swap1\n      pop\n        /* \"#utility.yul\":4225:4338   */\n      swap2\n      swap1\n      pop\n      jump\t// out\n        /* \"#utility.yul\":4374:5106   */\n    tag_133:\n        /* \"#utility.yul\":4493:4496   */\n      0x00\n        /* \"#utility.yul\":4522:4576   */\n      tag_199\n        /* \"#utility.yul\":4570:4575   */\n      dup3\n        /* \"#utility.yul\":4522:4576   */\n      tag_127\n      jump\t// in\n    tag_199:\n        /* \"#utility.yul\":4592:4678   */\n      tag_200\n        /* \"#utility.yul\":4671:4677   */\n      dup2\n        /* \"#utility.yul\":4666:4669   */\n      dup6\n        /* \"#utility.yul\":4592:4678   */\n      tag_128\n      jump\t// in\n    tag_200:\n        /* \"#utility.yul\":4585:4678   */\n      swap4\n      pop\n        /* \"#utility.yul\":4702:4758   */\n      tag_201\n        /* \"#utility.yul\":4752:4757   */\n      dup4\n        /* \"#utility.yul\":4702:4758   */\n      tag_129\n      jump\t// in\n    tag_201:\n        /* \"#utility.yul\":4781:4788   */\n      dup1\n        /* \"#utility.yul\":4812:4813   */\n      0x00\n        /* \"#utility.yul\":4797:5081   */\n    tag_202:\n        /* \"#utility.yul\":4822:4828   */\n      dup4\n        /* \"#utility.yul\":4819:4820   */\n      dup2\n        /* \"#utility.yul\":4816:4829   */\n      lt\n        /* \"#utility.yul\":4797:5081   */\n      iszero\n      tag_204\n      jumpi\n        /* \"#utility.yul\":4898:4904   */\n      dup2\n        /* \"#utility.yul\":4892:4905   */\n      mload\n        /* \"#utility.yul\":4925:4988   */\n      tag_205\n        /* \"#utility.yul\":4984:4987   */\n      dup9\n        /* \"#utility.yul\":4969:4982   */\n      dup3\n        /* \"#utility.yul\":4925:4988   */\n      tag_131\n      jump\t// in\n    tag_205:\n        /* \"#utility.yul\":4918:4988   */\n      swap8\n      pop\n        /* \"#utility.yul\":5011:5071   */\n      tag_206\n        /* \"#utility.yul\":5064:5070   */\n      dup4\n        /* \"#utility.yul\":5011:5071   */\n      tag_132\n      jump\t// in\n    tag_206:\n        /* \"#utility.yul\":5001:5071   */\n      swap3\n      pop\n        /* \"#utility.yul\":4857:5081   */\n      pop\n        /* \"#utility.yul\":4844:4845   */\n      0x01\n        /* \"#utility.yul\":4841:4842   */\n      dup2\n        /* \"#utility.yul\":4837:4846   */\n      add\n        /* \"#utility.yul\":4832:4846   */\n      swap1\n      pop\n        /* \"#utility.yul\":4797:5081   */\n      jump(tag_202)\n    tag_204:\n        /* \"#utility.yul\":4801:4815   */\n      pop\n        /* \"#utility.yul\":5097:5100   */\n      dup6\n        /* \"#utility.yul\":5090:5100   */\n      swap4\n      pop\n        /* \"#utility.yul\":4498:5106   */\n      pop\n      pop\n      pop\n        /* \"#utility.yul\":4374:5106   */\n      swap3\n      swap2\n      pop\n      pop\n      jump\t// out\n        /* \"#utility.yul\":5112:5485   */\n    tag_59:\n        /* \"#utility.yul\":5255:5259   */\n      0x00\n        /* \"#utility.yul\":5293:5295   */\n      0x20\n        /* \"#utility.yul\":5282:5291   */\n      dup3\n        /* \"#utility.yul\":5278:5296   */\n      add\n        /* \"#utility.yul\":5270:5296   */\n      swap1\n      pop\n        /* \"#utility.yul\":5342:5351   */\n      dup2\n        /* \"#utility.yul\":5336:5340   */\n      dup2\n        /* \"#utility.yul\":5332:5352   */\n      sub\n        /* \"#utility.yul\":5328:5329   */\n      0x00\n        /* \"#utility.yul\":5317:5326   */\n      dup4\n        /* \"#utility.yul\":5313:5330   */\n      add\n        /* \"#utility.yul\":5306:5353   */\n      mstore\n        /* \"#utility.yul\":5370:5478   */\n      tag_208\n        /* \"#utility.yul\":5473:5477   */\n      dup2\n        /* \"#utility.yul\":5464:5470   */\n      dup5\n        /* \"#utility.yul\":5370:5478   */\n      tag_133\n      jump\t// in\n    tag_208:\n        /* \"#utility.yul\":5362:5478   */\n      swap1\n      pop\n        /* \"#utility.yul\":5112:5485   */\n      swap3\n      swap2\n      pop\n      pop\n      jump\t// out\n        /* \"#utility.yul\":5491:5660   */\n    tag_134:\n        /* \"#utility.yul\":5575:5586   */\n      0x00\n        /* \"#utility.yul\":5609:5615   */\n      dup3\n        /* \"#utility.yul\":5604:5607   */\n      dup3\n        /* \"#utility.yul\":5597:5616   */\n      mstore\n        /* \"#utility.yul\":5649:5653   */\n      0x20\n        /* \"#utility.yul\":5644:5647   */\n      dup3\n        /* \"#utility.yul\":5640:5654   */\n      add\n        /* \"#utility.yul\":5625:5654   */\n      swap1\n      pop\n        /* \"#utility.yul\":5491:5660   */\n      swap3\n      swap2\n      pop\n      pop\n      jump\t// out\n        /* \"#utility.yul\":5666:5828   */\n    tag_135:\n        /* \"#utility.yul\":5806:5820   */\n      0x4e6f7420616e206f776e65720000000000000000000000000000000000000000\n        /* \"#utility.yul\":5802:5803   */\n      0x00\n        /* \"#utility.yul\":5794:5800   */\n      dup3\n        /* \"#utility.yul\":5790:5804   */\n      add\n        /* \"#utility.yul\":5783:5821   */\n      mstore\n        /* \"#utility.yul\":5666:5828   */\n      pop\n      jump\t// out\n        /* \"#utility.yul\":5834:6200   */\n    tag_136:\n        /* \"#utility.yul\":5976:5979   */\n      0x00\n        /* \"#utility.yul\":5997:6064   */\n      tag_212\n        /* \"#utility.yul\":6061:6063   */\n      0x0c\n        /* \"#utility.yul\":6056:6059   */\n      dup4\n        /* \"#utility.yul\":5997:6064   */\n      tag_134\n      jump\t// in\n    tag_212:\n        /* \"#utility.yul\":5990:6064   */\n      swap2\n      pop\n        /* \"#utility.yul\":6073:6166   */\n      tag_213\n        /* \"#utility.yul\":6162:6165   */\n      dup3\n        /* \"#utility.yul\":6073:6166   */\n      tag_135\n      jump\t// in\n    tag_213:\n        /* \"#utility.yul\":6191:6193   */\n      0x20\n        /* \"#utility.yul\":6186:6189   */\n      dup3\n        /* \"#utility.yul\":6182:6194   */\n      add\n        /* \"#utility.yul\":6175:6194   */\n      swap1\n      pop\n        /* \"#utility.yul\":5834:6200   */\n      swap2\n      swap1\n      pop\n      jump\t// out\n        /* \"#utility.yul\":6206:6625   */\n    tag_76:\n        /* \"#utility.yul\":6372:6376   */\n      0x00\n        /* \"#utility.yul\":6410:6412   */\n      0x20\n        /* \"#utility.yul\":6399:6408   */\n      dup3\n        /* \"#utility.yul\":6395:6413   */\n      add\n        /* \"#utility.yul\":6387:6413   */\n      swap1\n      pop\n        /* \"#utility.yul\":6459:6468   */\n      dup2\n        /* \"#utility.yul\":6453:6457   */\n      dup2\n        /* \"#utility.yul\":6449:6469   */\n      sub\n        /* \"#utility.yul\":6445:6446   */\n      0x00\n        /* \"#utility.yul\":6434:6443   */\n      dup4\n        /* \"#utility.yul\":6430:6447   */\n      add\n        /* \"#utility.yul\":6423:6470   */\n      mstore\n        /* \"#utility.yul\":6487:6618   */\n      tag_215\n        /* \"#utility.yul\":6613:6617   */\n      dup2\n        /* \"#utility.yul\":6487:6618   */\n      tag_136\n      jump\t// in\n    tag_215:\n        /* \"#utility.yul\":6479:6618   */\n      swap1\n      pop\n        /* \"#utility.yul\":6206:6625   */\n      swap2\n      swap1\n      pop\n      jump\t// out\n        /* \"#utility.yul\":6631:6798   */\n    tag_137:\n        /* \"#utility.yul\":6771:6790   */\n      0x416c726561647920726571756573746564000000000000000000000000000000\n        /* \"#utility.yul\":6767:6768   */\n      0x00\n        /* \"#utility.yul\":6759:6765   */\n      dup3\n        /* \"#utility.yul\":6755:6769   */\n      add\n        /* \"#utility.yul\":6748:6791   */\n      mstore\n        /* \"#utility.yul\":6631:6798   */\n      pop\n      jump\t// out\n        /* \"#utility.yul\":6804:7170   */\n    tag_138:\n        /* \"#utility.yul\":6946:6949   */\n      0x00\n        /* \"#utility.yul\":6967:7034   */\n      tag_218\n        /* \"#utility.yul\":7031:7033   */\n      0x11\n        /* \"#utility.yul\":7026:7029   */\n      dup4\n        /* \"#utility.yul\":6967:7034   */\n      tag_134\n      jump\t// in\n    tag_218:\n        /* \"#utility.yul\":6960:7034   */\n      swap2\n      pop\n        /* \"#utility.yul\":7043:7136   */\n      tag_219\n        /* \"#utility.yul\":7132:7135   */\n      dup3\n        /* \"#utility.yul\":7043:7136   */\n      tag_137\n      jump\t// in\n    tag_219:\n        /* \"#utility.yul\":7161:7163   */\n      0x20\n        /* \"#utility.yul\":7156:7159   */\n      dup3\n        /* \"#utility.yul\":7152:7164   */\n      add\n        /* \"#utility.yul\":7145:7164   */\n      swap1\n      pop\n        /* \"#utility.yul\":6804:7170   */\n      swap2\n      swap1\n      pop\n      jump\t// out\n        /* \"#utility.yul\":7176:7595   */\n    tag_80:\n        /* \"#utility.yul\":7342:7346   */\n      0x00\n        /* \"#utility.yul\":7380:7382   */\n      0x20\n        /* \"#utility.yul\":7369:7378   */\n      dup3\n        /* \"#utility.yul\":7365:7383   */\n      add\n        /* \"#utility.yul\":7357:7383   */\n      swap1\n      pop\n        /* \"#utility.yul\":7429:7438   */\n      dup2\n        /* \"#utility.yul\":7423:7427   */\n      dup2\n        /* \"#utility.yul\":7419:7439   */\n      sub\n        /* \"#utility.yul\":7415:7416   */\n      0x00\n        /* \"#utility.yul\":7404:7413   */\n      dup4\n        /* \"#utility.yul\":7400:7417   */\n      add\n        /* \"#utility.yul\":7393:7440   */\n      mstore\n        /* \"#utility.yul\":7457:7588   */\n      tag_221\n        /* \"#utility.yul\":7583:7587   */\n      dup2\n        /* \"#utility.yul\":7457:7588   */\n      tag_138\n      jump\t// in\n    tag_221:\n        /* \"#utility.yul\":7449:7588   */\n      swap1\n      pop\n        /* \"#utility.yul\":7176:7595   */\n      swap2\n      swap1\n      pop\n      jump\t// out\n        /* \"#utility.yul\":7601:7767   */\n    tag_139:\n        /* \"#utility.yul\":7741:7759   */\n      0x4e6f7420656e6f7567682066756e647300000000000000000000000000000000\n        /* \"#utility.yul\":7737:7738   */\n      0x00\n        /* \"#utility.yul\":7729:7735   */\n      dup3\n        /* \"#utility.yul\":7725:7739   */\n      add\n        /* \"#utility.yul\":7718:7760   */\n      mstore\n        /* \"#utility.yul\":7601:7767   */\n      pop\n      jump\t// out\n        /* \"#utility.yul\":7773:8139   */\n    tag_140:\n        /* \"#utility.yul\":7915:7918   */\n      0x00\n        /* \"#utility.yul\":7936:8003   */\n      tag_224\n        /* \"#utility.yul\":8000:8002   */\n      0x10\n        /* \"#utility.yul\":7995:7998   */\n      dup4\n        /* \"#utility.yul\":7936:8003   */\n      tag_134\n      jump\t// in\n    tag_224:\n        /* \"#utility.yul\":7929:8003   */\n      swap2\n      pop\n        /* \"#utility.yul\":8012:8105   */\n      tag_225\n        /* \"#utility.yul\":8101:8104   */\n      dup3\n        /* \"#utility.yul\":8012:8105   */\n      tag_139\n      jump\t// in\n    tag_225:\n        /* \"#utility.yul\":8130:8132   */\n      0x20\n        /* \"#utility.yul\":8125:8128   */\n      dup3\n        /* \"#utility.yul\":8121:8133   */\n      add\n        /* \"#utility.yul\":8114:8133   */\n      swap1\n      pop\n        /* \"#utility.yul\":7773:8139   */\n      swap2\n      swap1\n      pop\n      jump\t// out\n        /* \"#utility.yul\":8145:8564   */\n    tag_83:\n        /* \"#utility.yul\":8311:8315   */\n      0x00\n        /* \"#utility.yul\":8349:8351   */\n      0x20\n        /* \"#utility.yul\":8338:8347   */\n      dup3\n        /* \"#utility.yul\":8334:8352   */\n      add\n        /* \"#utility.yul\":8326:8352   */\n      swap1\n      pop\n        /* \"#utility.yul\":8398:8407   */\n      dup2\n        /* \"#utility.yul\":8392:8396   */\n      dup2\n        /* \"#utility.yul\":8388:8408   */\n      sub\n        /* \"#utility.yul\":8384:8385   */\n      0x00\n        /* \"#utility.yul\":8373:8382   */\n      dup4\n        /* \"#utility.yul\":8369:8386   */\n      add\n        /* \"#utility.yul\":8362:8409   */\n      mstore\n        /* \"#utility.yul\":8426:8557   */\n      tag_227\n        /* \"#utility.yul\":8552:8556   */\n      dup2\n        /* \"#utility.yul\":8426:8557   */\n      tag_140\n      jump\t// in\n    tag_227:\n        /* \"#utility.yul\":8418:8557   */\n      swap1\n      pop\n        /* \"#utility.yul\":8145:8564   */\n      swap2\n      swap1\n      pop\n      jump\t// out\n        /* \"#utility.yul\":8570:8750   */\n    tag_89:\n        /* \"#utility.yul\":8618:8695   */\n      0x4e487b7100000000000000000000000000000000000000000000000000000000\n        /* \"#utility.yul\":8615:8616   */\n      0x00\n        /* \"#utility.yul\":8608:8696   */\n      mstore\n        /* \"#utility.yul\":8715:8719   */\n      0x32\n        /* \"#utility.yul\":8712:8713   */\n      0x04\n        /* \"#utility.yul\":8705:8720   */\n      mstore\n        /* \"#utility.yul\":8739:8743   */\n      0x24\n        /* \"#utility.yul\":8736:8737   */\n      0x00\n        /* \"#utility.yul\":8729:8744   */\n      revert\n        /* \"#utility.yul\":8756:8929   */\n    tag_141:\n        /* \"#utility.yul\":8896:8921   */\n      0x4e6f207769746864726177616c20726571756573746564000000000000000000\n        /* \"#utility.yul\":8892:8893   */\n      0x00\n        /* \"#utility.yul\":8884:8890   */\n      dup3\n        /* \"#utility.yul\":8880:8894   */\n      add\n        /* \"#utility.yul\":8873:8922   */\n      mstore\n        /* \"#utility.yul\":8756:8929   */\n      pop\n      jump\t// out\n        /* \"#utility.yul\":8935:9301   */\n    tag_142:\n        /* \"#utility.yul\":9077:9080   */\n      0x00\n        /* \"#utility.yul\":9098:9165   */\n      tag_231\n        /* \"#utility.yul\":9162:9164   */\n      0x17\n        /* \"#utility.yul\":9157:9160   */\n      dup4\n        /* \"#utility.yul\":9098:9165   */\n      tag_134\n      jump\t// in\n    tag_231:\n        /* \"#utility.yul\":9091:9165   */\n      swap2\n      pop\n        /* \"#utility.yul\":9174:9267   */\n      tag_232\n        /* \"#utility.yul\":9263:9266   */\n      dup3\n        /* \"#utility.yul\":9174:9267   */\n      tag_141\n      jump\t// in\n    tag_232:\n        /* \"#utility.yul\":9292:9294   */\n      0x20\n        /* \"#utility.yul\":9287:9290   */\n      dup3\n        /* \"#utility.yul\":9283:9295   */\n      add\n        /* \"#utility.yul\":9276:9295   */\n      swap1\n      pop\n        /* \"#utility.yul\":8935:9301   */\n      swap2\n      swap1\n      pop\n      jump\t// out\n        /* \"#utility.yul\":9307:9726   */\n    tag_97:\n        /* \"#utility.yul\":9473:9477   */\n      0x00\n        /* \"#utility.yul\":9511:9513   */\n      0x20\n        /* \"#utility.yul\":9500:9509   */\n      dup3\n        /* \"#utility.yul\":9496:9514   */\n      add\n        /* \"#utility.yul\":9488:9514   */\n      swap1\n      pop\n        /* \"#utility.yul\":9560:9569   */\n      dup2\n        /* \"#utility.yul\":9554:9558   */\n      dup2\n        /* \"#utility.yul\":9550:9570   */\n      sub\n        /* \"#utility.yul\":9546:9547   */\n      0x00\n        /* \"#utility.yul\":9535:9544   */\n      dup4\n        /* \"#utility.yul\":9531:9548   */\n      add\n        /* \"#utility.yul\":9524:9571   */\n      mstore\n        /* \"#utility.yul\":9588:9719   */\n      tag_234\n        /* \"#utility.yul\":9714:9718   */\n      dup2\n        /* \"#utility.yul\":9588:9719   */\n      tag_142\n      jump\t// in\n    tag_234:\n        /* \"#utility.yul\":9580:9719   */\n      swap1\n      pop\n        /* \"#utility.yul\":9307:9726   */\n      swap2\n      swap1\n      pop\n      jump\t// out\n        /* \"#utility.yul\":9732:9898   */\n    tag_143:\n        /* \"#utility.yul\":9872:9890   */\n      0x416c726561647920617070726f76656400000000000000000000000000000000\n        /* \"#utility.yul\":9868:9869   */\n      0x00\n        /* \"#utility.yul\":9860:9866   */\n      dup3\n        /* \"#utility.yul\":9856:9870   */\n      add\n        /* \"#utility.yul\":9849:9891   */\n      mstore\n        /* \"#utility.yul\":9732:9898   */\n      pop\n      jump\t// out\n        /* \"#utility.yul\":9904:10270   */\n    tag_144:\n        /* \"#utility.yul\":10046:10049   */\n      0x00\n        /* \"#utility.yul\":10067:10134   */\n      tag_237\n        /* \"#utility.yul\":10131:10133   */\n      0x10\n        /* \"#utility.yul\":10126:10129   */\n      dup4\n        /* \"#utility.yul\":10067:10134   */\n      tag_134\n      jump\t// in\n    tag_237:\n        /* \"#utility.yul\":10060:10134   */\n      swap2\n      pop\n        /* \"#utility.yul\":10143:10236   */\n      tag_238\n        /* \"#utility.yul\":10232:10235   */\n      dup3\n        /* \"#utility.yul\":10143:10236   */\n      tag_143\n      jump\t// in\n    tag_238:\n        /* \"#utility.yul\":10261:10263   */\n      0x20\n        /* \"#utility.yul\":10256:10259   */\n      dup3\n        /* \"#utility.yul\":10252:10264   */\n      add\n        /* \"#utility.yul\":10245:10264   */\n      swap1\n      pop\n        /* \"#utility.yul\":9904:10270   */\n      swap2\n      swap1\n      pop\n      jump\t// out\n        /* \"#utility.yul\":10276:10695   */\n    tag_100:\n        /* \"#utility.yul\":10442:10446   */\n      0x00\n        /* \"#utility.yul\":10480:10482   */\n      0x20\n        /* \"#utility.yul\":10469:10478   */\n      dup3\n        /* \"#utility.yul\":10465:10483   */\n      add\n        /* \"#utility.yul\":10457:10483   */\n      swap1\n      pop\n        /* \"#utility.yul\":10529:10538   */\n      dup2\n        /* \"#utility.yul\":10523:10527   */\n      dup2\n        /* \"#utility.yul\":10519:10539   */\n      sub\n        /* \"#utility.yul\":10515:10516   */\n      0x00\n        /* \"#utility.yul\":10504:10513   */\n      dup4\n        /* \"#utility.yul\":10500:10517   */\n      add\n        /* \"#utility.yul\":10493:10540   */\n      mstore\n        /* \"#utility.yul\":10557:10688   */\n      tag_240\n        /* \"#utility.yul\":10683:10687   */\n      dup2\n        /* \"#utility.yul\":10557:10688   */\n      tag_144\n      jump\t// in\n    tag_240:\n        /* \"#utility.yul\":10549:10688   */\n      swap1\n      pop\n        /* \"#utility.yul\":10276:10695   */\n      swap2\n      swap1\n      pop\n      jump\t// out\n        /* \"#utility.yul\":10701:10881   */\n    tag_145:\n        /* \"#utility.yul\":10749:10826   */\n      0x4e487b7100000000000000000000000000000000000000000000000000000000\n        /* \"#utility.yul\":10746:10747   */\n      0x00\n        /* \"#utility.yul\":10739:10827   */\n      mstore\n        /* \"#utility.yul\":10846:10850   */\n      0x11\n        /* \"#utility.yul\":10843:10844   */\n      0x04\n        /* \"#utility.yul\":10836:10851   */\n      mstore\n        /* \"#utility.yul\":10870:10874   */\n      0x24\n        /* \"#utility.yul\":10867:10868   */\n      0x00\n        /* \"#utility.yul\":10860:10875   */\n      revert\n        /* \"#utility.yul\":10887:11120   */\n    tag_102:\n        /* \"#utility.yul\":10926:10929   */\n      0x00\n        /* \"#utility.yul\":10949:10973   */\n      tag_243\n        /* \"#utility.yul\":10967:10972   */\n      dup3\n        /* \"#utility.yul\":10949:10973   */\n      tag_116\n      jump\t// in\n    tag_243:\n        /* \"#utility.yul\":10940:10973   */\n      swap2\n      pop\n        /* \"#utility.yul\":10995:11061   */\n      0xffffffffffffffffffffffffffffffffffffffffffffffffffffffffffffffff\n        /* \"#utility.yul\":10988:10993   */\n      dup3\n        /* \"#utility.yul\":10985:11062   */\n      sub\n        /* \"#utility.yul\":10982:11085   */\n      tag_244\n      jumpi\n        /* \"#utility.yul\":11065:11083   */\n      tag_245\n      tag_145\n      jump\t// in\n    tag_245:\n        /* \"#utility.yul\":10982:11085   */\n    tag_244:\n        /* \"#utility.yul\":11112:11113   */\n      0x01\n        /* \"#utility.yul\":11105:11110   */\n      dup3\n        /* \"#utility.yul\":11101:11114   */\n      add\n        /* \"#utility.yul\":11094:11114   */\n      swap1\n      pop\n        /* \"#utility.yul\":10887:11120   */\n      swap2\n      swap1\n      pop\n      jump\t// out\n\n    auxdata: 0xa2646970667358221220f4e7a3ba804adb1bb02d347caad3761868e0d15eacffa737a58f1fb5a264a83b64736f6c634300081e0033\n}\n",
				"bytecode": {
					"linkReferences": {},
					"object": "608060405234801561000f575f5ffd5b506040516114a43803806114a48339818101604052810190610031919061041b565b5f815111610074576040517f08c379a000000000000000000000000000000000000000000000000000000000815260040161006b906104bc565b60405180910390fd5b5f5f90505b8151811015610259575f828281518110610096576100956104da565b5b602002602001015190505f73ffffffffffffffffffffffffffffffffffffffff168173ffffffffffffffffffffffffffffffffffffffff160361010e576040517f08c379a000000000000000000000000000000000000000000000000000000000815260040161010590610551565b60405180910390fd5b60015f8273ffffffffffffffffffffffffffffffffffffffff1673ffffffffffffffffffffffffffffffffffffffff1681526020019081526020015f205f9054906101000a900460ff1615610198576040517f08c379a000000000000000000000000000000000000000000000000000000000815260040161018f906105b9565b60405180910390fd5b5f81908060018154018082558091505060019003905f5260205f20015f9091909190916101000a81548173ffffffffffffffffffffffffffffffffffffffff021916908373ffffffffffffffffffffffffffffffffffffffff1602179055506001805f8373ffffffffffffffffffffffffffffffffffffffff1673ffffffffffffffffffffffffffffffffffffffff1681526020019081526020015f205f6101000a81548160ff021916908315150217905550508080600101915050610079565b50506105d7565b5f604051905090565b5f5ffd5b5f5ffd5b5f5ffd5b5f601f19601f8301169050919050565b7f4e487b71000000000000000000000000000000000000000000000000000000005f52604160045260245ffd5b6102bb82610275565b810181811067ffffffffffffffff821117156102da576102d9610285565b5b80604052505050565b5f6102ec610260565b90506102f882826102b2565b919050565b5f67ffffffffffffffff82111561031757610316610285565b5b602082029050602081019050919050565b5f5ffd5b5f73ffffffffffffffffffffffffffffffffffffffff82169050919050565b5f6103558261032c565b9050919050565b6103658161034b565b811461036f575f5ffd5b50565b5f815190506103808161035c565b92915050565b5f610398610393846102fd565b6102e3565b905080838252602082019050602084028301858111156103bb576103ba610328565b5b835b818110156103e457806103d08882610372565b8452602084019350506020810190506103bd565b5050509392505050565b5f82601f83011261040257610401610271565b5b8151610412848260208601610386565b91505092915050565b5f602082840312156104305761042f610269565b5b5f82015167ffffffffffffffff81111561044d5761044c61026d565b5b610459848285016103ee565b91505092915050565b5f82825260208201905092915050565b7f4e656564206174206c656173742031206f776e657200000000000000000000005f82015250565b5f6104a6601583610462565b91506104b182610472565b602082019050919050565b5f6020820190508181035f8301526104d38161049a565b9050919050565b7f4e487b71000000000000000000000000000000000000000000000000000000005f52603260045260245ffd5b7f496e76616c6964206f776e6572000000000000000000000000000000000000005f82015250565b5f61053b600d83610462565b915061054682610507565b602082019050919050565b5f6020820190508181035f8301526105688161052f565b9050919050565b7f4475706c6963617465206f776e657200000000000000000000000000000000005f82015250565b5f6105a3600f83610462565b91506105ae8261056f565b602082019050919050565b5f6020820190508181035f8301526105d081610597565b9050919050565b610ec0806105e45f395ff3fe6080604052600436106100a6575f3560e01c80636884d0a6116100635780636884d0a6146101b45780639430b496146101de578063a0e67e2b1461021a578063c1d4691a14610244578063d0e30db01461026e578063e6e268f414610278576100a6565b8063025e7c27146100aa57806312065fe0146100e657806321739779146101105780632a853664146101385780632c8b8bb3146101625780632f54bf6e14610178575b5f5ffd5b3480156100b5575f5ffd5b506100d060048036038101906100cb9190610989565b6102a2565b6040516100dd91906109f3565b60405180910390f35b3480156100f1575f5ffd5b506100fa6102dc565b6040516101079190610a1b565b60405180910390f35b34801561011b575f5ffd5b5061013660048036038101906101319190610a5e565b6102e3565b005b348015610143575f5ffd5b5061014c610519565b6040516101599190610ab6565b60405180910390f35b34801561016d575f5ffd5b5061017661052c565b005b348015610183575f5ffd5b5061019e60048036038101906101999190610acf565b6107d2565b6040516101ab9190610ab6565b60405180910390f35b3480156101bf575f5ffd5b506101c86107ef565b6040516101d59190610a1b565b60405180910390f35b3480156101e9575f5ffd5b5061020460048036038101906101ff9190610acf565b6107f5565b6040516102119190610ab6565b60405180910390f35b348015610225575f5ffd5b5061022e610812565b60405161023b9190610bb1565b60405180910390f35b34801561024f575f5ffd5b5061025861089c565b60405161026591906109f3565b60405180910390f35b6102766108c1565b005b348015610283575f5ffd5b5061028c61094c565b6040516102999190610a1b565b60405180910390f35b5f81815481106102b0575f80fd5b905f5260205f20015f915054906101000a900473ffffffffffffffffffffffffffffffffffffffff1681565b5f47905090565b60015f3373ffffffffffffffffffffffffffffffffffffffff1673ffffffffffffffffffffffffffffffffffffffff1681526020019081526020015f205f9054906101000a900460ff1661036c576040517f08c379a000000000000000000000000000000000000000000000000000000000815260040161036390610c2b565b60405180910390fd5b600360149054906101000a900460ff16156103bc576040517f08c379a00000000000000000000000000000000000000000000000000000000081526004016103b390610c93565b60405180910390fd5b814710156103ff576040517f08c379a00000000000000000000000000000000000000000000000000000000081526004016103f690610cfb565b60405180910390fd5b816002819055508060035f6101000a81548173ffffffffffffffffffffffffffffffffffffffff021916908373ffffffffffffffffffffffffffffffffffffffff1602179055506001600360146101000a81548160ff0219169083151502179055505f5f90505b5f8054905081101561050d575f60045f5f848154811061048957610488610d19565b5b905f5260205f20015f9054906101000a900473ffffffffffffffffffffffffffffffffffffffff1673ffffffffffffffffffffffffffffffffffffffff1673ffffffffffffffffffffffffffffffffffffffff1681526020019081526020015f205f6101000a81548160ff0219169083151502179055508080600101915050610466565b505f6005819055505050565b600360149054906101000a900460ff1681565b60015f3373ffffffffffffffffffffffffffffffffffffffff1673ffffffffffffffffffffffffffffffffffffffff1681526020019081526020015f205f9054906101000a900460ff166105b5576040517f08c379a00000000000000000000000000000000000000000000000000000000081526004016105ac90610c2b565b60405180910390fd5b600360149054906101000a900460ff16610604576040517f08c379a00000000000000000000000000000000000000000000000000000000081526004016105fb90610d90565b60405180910390fd5b60045f3373ffffffffffffffffffffffffffffffffffffffff1673ffffffffffffffffffffffffffffffffffffffff1681526020019081526020015f205f9054906101000a900460ff161561068e576040517f08c379a000000000000000000000000000000000000000000000000000000000815260040161068590610df8565b60405180910390fd5b600160045f3373ffffffffffffffffffffffffffffffffffffffff1673ffffffffffffffffffffffffffffffffffffffff1681526020019081526020015f205f6101000a81548160ff02191690831515021790555060055f8154809291906106f590610e43565b91905055505f80549050600554036107d05760035f9054906101000a900473ffffffffffffffffffffffffffffffffffffffff1673ffffffffffffffffffffffffffffffffffffffff166108fc60025490811502906040515f60405180830381858888f1935050505015801561076d573d5f5f3e3d5ffd5b505f600360146101000a81548160ff0219169083151502179055505f6002819055505f60035f6101000a81548173ffffffffffffffffffffffffffffffffffffffff021916908373ffffffffffffffffffffffffffffffffffffffff1602179055505b565b6001602052805f5260405f205f915054906101000a900460ff1681565b60055481565b6004602052805f5260405f205f915054906101000a900460ff1681565b60605f80548060200260200160405190810160405280929190818152602001828054801561089257602002820191905f5260205f20905b815f9054906101000a900473ffffffffffffffffffffffffffffffffffffffff1673ffffffffffffffffffffffffffffffffffffffff1681526020019060010190808311610849575b5050505050905090565b60035f9054906101000a900473ffffffffffffffffffffffffffffffffffffffff1681565b60015f3373ffffffffffffffffffffffffffffffffffffffff1673ffffffffffffffffffffffffffffffffffffffff1681526020019081526020015f205f9054906101000a900460ff1661094a576040517f08c379a000000000000000000000000000000000000000000000000000000000815260040161094190610c2b565b60405180910390fd5b565b60025481565b5f5ffd5b5f819050919050565b61096881610956565b8114610972575f5ffd5b50565b5f813590506109838161095f565b92915050565b5f6020828403121561099e5761099d610952565b5b5f6109ab84828501610975565b91505092915050565b5f73ffffffffffffffffffffffffffffffffffffffff82169050919050565b5f6109dd826109b4565b9050919050565b6109ed816109d3565b82525050565b5f602082019050610a065f8301846109e4565b92915050565b610a1581610956565b82525050565b5f602082019050610a2e5f830184610a0c565b92915050565b610a3d816109d3565b8114610a47575f5ffd5b50565b5f81359050610a5881610a34565b92915050565b5f5f60408385031215610a7457610a73610952565b5b5f610a8185828601610975565b9250506020610a9285828601610a4a565b9150509250929050565b5f8115159050919050565b610ab081610a9c565b82525050565b5f602082019050610ac95f830184610aa7565b92915050565b5f60208284031215610ae457610ae3610952565b5b5f610af184828501610a4a565b91505092915050565b5f81519050919050565b5f82825260208201905092915050565b5f819050602082019050919050565b610b2c816109d3565b82525050565b5f610b3d8383610b23565b60208301905092915050565b5f602082019050919050565b5f610b5f82610afa565b610b698185610b04565b9350610b7483610b14565b805f5b83811015610ba4578151610b8b8882610b32565b9750610b9683610b49565b925050600181019050610b77565b5085935050505092915050565b5f6020820190508181035f830152610bc98184610b55565b905092915050565b5f82825260208201905092915050565b7f4e6f7420616e206f776e657200000000000000000000000000000000000000005f82015250565b5f610c15600c83610bd1565b9150610c2082610be1565b602082019050919050565b5f6020820190508181035f830152610c4281610c09565b9050919050565b7f416c7265616479207265717565737465640000000000000000000000000000005f82015250565b5f610c7d601183610bd1565b9150610c8882610c49565b602082019050919050565b5f6020820190508181035f830152610caa81610c71565b9050919050565b7f4e6f7420656e6f7567682066756e6473000000000000000000000000000000005f82015250565b5f610ce5601083610bd1565b9150610cf082610cb1565b602082019050919050565b5f6020820190508181035f830152610d1281610cd9565b9050919050565b7f4e487b71000000000000000000000000000000000000000000000000000000005f52603260045260245ffd5b7f4e6f207769746864726177616c207265717565737465640000000000000000005f82015250565b5f610d7a601783610bd1565b9150610d8582610d46565b602082019050919050565b5f6020820190508181035f830152610da781610d6e565b9050919050565b7f416c726561647920617070726f766564000000000000000000000000000000005f82015250565b5f610de2601083610bd1565b9150610ded82610dae565b602082019050919050565b5f6020820190508181035f830152610e0f81610dd6565b9050919050565b7f4e487b71000000000000000000000000000000000000000000000000000000005f52601160045260245ffd5b5f610e4d82610956565b91507fffffffffffffffffffffffffffffffffffffffffffffffffffffffffffffffff8203610e7f57610e7e610e16565b5b60018201905091905056fea2646970667358221220f4e7a3ba804adb1bb02d347caad3761868e0d15eacffa737a58f1fb5a264a83b64736f6c634300081e0033",
					"opcodes": "PUSH1 0x80 PUSH1 0x40 MSTORE CALLVALUE DUP1 ISZERO PUSH2 0xF JUMPI PUSH0 PUSH0 REVERT JUMPDEST POP PUSH1 0x40 MLOAD PUSH2 0x14A4 CODESIZE SUB DUP1 PUSH2 0x14A4 DUP4 CODECOPY DUP2 DUP2 ADD PUSH1 0x40 MSTORE DUP2 ADD SWAP1 PUSH2 0x31 SWAP2 SWAP1 PUSH2 0x41B JUMP JUMPDEST PUSH0 DUP2 MLOAD GT PUSH2 0x74 JUMPI PUSH1 0x40 MLOAD PUSH32 0x8C379A000000000000000000000000000000000000000000000000000000000 DUP2 MSTORE PUSH1 0x4 ADD PUSH2 0x6B SWAP1 PUSH2 0x4BC JUMP JUMPDEST PUSH1 0x40 MLOAD DUP1 SWAP2 SUB SWAP1 REVERT JUMPDEST PUSH0 PUSH0 SWAP1 POP JUMPDEST DUP2 MLOAD DUP2 LT ISZERO PUSH2 0x259 JUMPI PUSH0 DUP3 DUP3 DUP2 MLOAD DUP2 LT PUSH2 0x96 JUMPI PUSH2 0x95 PUSH2 0x4DA JUMP JUMPDEST JUMPDEST PUSH1 0x20 MUL PUSH1 0x20 ADD ADD MLOAD SWAP1 POP PUSH0 PUSH20 0xFFFFFFFFFFFFFFFFFFFFFFFFFFFFFFFFFFFFFFFF AND DUP2 PUSH20 0xFFFFFFFFFFFFFFFFFFFFFFFFFFFFFFFFFFFFFFFF AND SUB PUSH2 0x10E JUMPI PUSH1 0x40 MLOAD PUSH32 0x8C379A000000000000000000000000000000000000000000000000000000000 DUP2 MSTORE PUSH1 0x4 ADD PUSH2 0x105 SWAP1 PUSH2 0x551 JUMP JUMPDEST PUSH1 0x40 MLOAD DUP1 SWAP2 SUB SWAP1 REVERT JUMPDEST PUSH1 0x1 PUSH0 DUP3 PUSH20 0xFFFFFFFFFFFFFFFFFFFFFFFFFFFFFFFFFFFFFFFF AND PUSH20 0xFFFFFFFFFFFFFFFFFFFFFFFFFFFFFFFFFFFFFFFF AND DUP2 MSTORE PUSH1 0x20 ADD SWAP1 DUP2 MSTORE PUSH1 0x20 ADD PUSH0 KECCAK256 PUSH0 SWAP1 SLOAD SWAP1 PUSH2 0x100 EXP SWAP1 DIV PUSH1 0xFF AND ISZERO PUSH2 0x198 JUMPI PUSH1 0x40 MLOAD PUSH32 0x8C379A000000000000000000000000000000000000000000000000000000000 DUP2 MSTORE PUSH1 0x4 ADD PUSH2 0x18F SWAP1 PUSH2 0x5B9 JUMP JUMPDEST PUSH1 0x40 MLOAD DUP1 SWAP2 SUB SWAP1 REVERT JUMPDEST PUSH0 DUP2 SWAP1 DUP1 PUSH1 0x1 DUP2 SLOAD ADD DUP1 DUP3 SSTORE DUP1 SWAP2 POP POP PUSH1 0x1 SWAP1 SUB SWAP1 PUSH0 MSTORE PUSH1 0x20 PUSH0 KECCAK256 ADD PUSH0 SWAP1 SWAP2 SWAP1 SWAP2 SWAP1 SWAP2 PUSH2 0x100 EXP DUP2 SLOAD DUP2 PUSH20 0xFFFFFFFFFFFFFFFFFFFFFFFFFFFFFFFFFFFFFFFF MUL NOT AND SWAP1 DUP4 PUSH20 0xFFFFFFFFFFFFFFFFFFFFFFFFFFFFFFFFFFFFFFFF AND MUL OR SWAP1 SSTORE POP PUSH1 0x1 DUP1 PUSH0 DUP4 PUSH20 0xFFFFFFFFFFFFFFFFFFFFFFFFFFFFFFFFFFFFFFFF AND PUSH20 0xFFFFFFFFFFFFFFFFFFFFFFFFFFFFFFFFFFFFFFFF AND DUP2 MSTORE PUSH1 0x20 ADD SWAP1 DUP2 MSTORE PUSH1 0x20 ADD PUSH0 KECCAK256 PUSH0 PUSH2 0x100 EXP DUP2 SLOAD DUP2 PUSH1 0xFF MUL NOT AND SWAP1 DUP4 ISZERO ISZERO MUL OR SWAP1 SSTORE POP POP DUP1 DUP1 PUSH1 0x1 ADD SWAP2 POP POP PUSH2 0x79 JUMP JUMPDEST POP POP PUSH2 0x5D7 JUMP JUMPDEST PUSH0 PUSH1 0x40 MLOAD SWAP1 POP SWAP1 JUMP JUMPDEST PUSH0 PUSH0 REVERT JUMPDEST PUSH0 PUSH0 REVERT JUMPDEST PUSH0 PUSH0 REVERT JUMPDEST PUSH0 PUSH1 0x1F NOT PUSH1 0x1F DUP4 ADD AND SWAP1 POP SWAP2 SWAP1 POP JUMP JUMPDEST PUSH32 0x4E487B7100000000000000000000000000000000000000000000000000000000 PUSH0 MSTORE PUSH1 0x41 PUSH1 0x4 MSTORE PUSH1 0x24 PUSH0 REVERT JUMPDEST PUSH2 0x2BB DUP3 PUSH2 0x275 JUMP JUMPDEST DUP2 ADD DUP2 DUP2 LT PUSH8 0xFFFFFFFFFFFFFFFF DUP3 GT OR ISZERO PUSH2 0x2DA JUMPI PUSH2 0x2D9 PUSH2 0x285 JUMP JUMPDEST JUMPDEST DUP1 PUSH1 0x40 MSTORE POP POP POP JUMP JUMPDEST PUSH0 PUSH2 0x2EC PUSH2 0x260 JUMP JUMPDEST SWAP1 POP PUSH2 0x2F8 DUP3 DUP3 PUSH2 0x2B2 JUMP JUMPDEST SWAP2 SWAP1 POP JUMP JUMPDEST PUSH0 PUSH8 0xFFFFFFFFFFFFFFFF DUP3 GT ISZERO PUSH2 0x317 JUMPI PUSH2 0x316 PUSH2 0x285 JUMP JUMPDEST JUMPDEST PUSH1 0x20 DUP3 MUL SWAP1 POP PUSH1 0x20 DUP2 ADD SWAP1 POP SWAP2 SWAP1 POP JUMP JUMPDEST PUSH0 PUSH0 REVERT JUMPDEST PUSH0 PUSH20 0xFFFFFFFFFFFFFFFFFFFFFFFFFFFFFFFFFFFFFFFF DUP3 AND SWAP1 POP SWAP2 SWAP1 POP JUMP JUMPDEST PUSH0 PUSH2 0x355 DUP3 PUSH2 0x32C JUMP JUMPDEST SWAP1 POP SWAP2 SWAP1 POP JUMP JUMPDEST PUSH2 0x365 DUP2 PUSH2 0x34B JUMP JUMPDEST DUP2 EQ PUSH2 0x36F JUMPI PUSH0 PUSH0 REVERT JUMPDEST POP JUMP JUMPDEST PUSH0 DUP2 MLOAD SWAP1 POP PUSH2 0x380 DUP2 PUSH2 0x35C JUMP JUMPDEST SWAP3 SWAP2 POP POP JUMP JUMPDEST PUSH0 PUSH2 0x398 PUSH2 0x393 DUP5 PUSH2 0x2FD JUMP JUMPDEST PUSH2 0x2E3 JUMP JUMPDEST SWAP1 POP DUP1 DUP4 DUP3 MSTORE PUSH1 0x20 DUP3 ADD SWAP1 POP PUSH1 0x20 DUP5 MUL DUP4 ADD DUP6 DUP2 GT ISZERO PUSH2 0x3BB JUMPI PUSH2 0x3BA PUSH2 0x328 JUMP JUMPDEST JUMPDEST DUP4 JUMPDEST DUP2 DUP2 LT ISZERO PUSH2 0x3E4 JUMPI DUP1 PUSH2 0x3D0 DUP9 DUP3 PUSH2 0x372 JUMP JUMPDEST DUP5 MSTORE PUSH1 0x20 DUP5 ADD SWAP4 POP POP PUSH1 0x20 DUP2 ADD SWAP1 POP PUSH2 0x3BD JUMP JUMPDEST POP POP POP SWAP4 SWAP3 POP POP POP JUMP JUMPDEST PUSH0 DUP3 PUSH1 0x1F DUP4 ADD SLT PUSH2 0x402 JUMPI PUSH2 0x401 PUSH2 0x271 JUMP JUMPDEST JUMPDEST DUP2 MLOAD PUSH2 0x412 DUP5 DUP3 PUSH1 0x20 DUP7 ADD PUSH2 0x386 JUMP JUMPDEST SWAP2 POP POP SWAP3 SWAP2 POP POP JUMP JUMPDEST PUSH0 PUSH1 0x20 DUP3 DUP5 SUB SLT ISZERO PUSH2 0x430 JUMPI PUSH2 0x42F PUSH2 0x269 JUMP JUMPDEST JUMPDEST PUSH0 DUP3 ADD MLOAD PUSH8 0xFFFFFFFFFFFFFFFF DUP2 GT ISZERO PUSH2 0x44D JUMPI PUSH2 0x44C PUSH2 0x26D JUMP JUMPDEST JUMPDEST PUSH2 0x459 DUP5 DUP3 DUP6 ADD PUSH2 0x3EE JUMP JUMPDEST SWAP2 POP POP SWAP3 SWAP2 POP POP JUMP JUMPDEST PUSH0 DUP3 DUP3 MSTORE PUSH1 0x20 DUP3 ADD SWAP1 POP SWAP3 SWAP2 POP POP JUMP JUMPDEST PUSH32 0x4E656564206174206C656173742031206F776E65720000000000000000000000 PUSH0 DUP3 ADD MSTORE POP JUMP JUMPDEST PUSH0 PUSH2 0x4A6 PUSH1 0x15 DUP4 PUSH2 0x462 JUMP JUMPDEST SWAP2 POP PUSH2 0x4B1 DUP3 PUSH2 0x472 JUMP JUMPDEST PUSH1 0x20 DUP3 ADD SWAP1 POP SWAP2 SWAP1 POP JUMP JUMPDEST PUSH0 PUSH1 0x20 DUP3 ADD SWAP1 POP DUP2 DUP2 SUB PUSH0 DUP4 ADD MSTORE PUSH2 0x4D3 DUP2 PUSH2 0x49A JUMP JUMPDEST SWAP1 POP SWAP2 SWAP1 POP JUMP JUMPDEST PUSH32 0x4E487B7100000000000000000000000000000000000000000000000000000000 PUSH0 MSTORE PUSH1 0x32 PUSH1 0x4 MSTORE PUSH1 0x24 PUSH0 REVERT JUMPDEST PUSH32 0x496E76616C6964206F776E657200000000000000000000000000000000000000 PUSH0 DUP3 ADD MSTORE POP JUMP JUMPDEST PUSH0 PUSH2 0x53B PUSH1 0xD DUP4 PUSH2 0x462 JUMP JUMPDEST SWAP2 POP PUSH2 0x546 DUP3 PUSH2 0x507 JUMP JUMPDEST PUSH1 0x20 DUP3 ADD SWAP1 POP SWAP2 SWAP1 POP JUMP JUMPDEST PUSH0 PUSH1 0x20 DUP3 ADD SWAP1 POP DUP2 DUP2 SUB PUSH0 DUP4 ADD MSTORE PUSH2 0x568 DUP2 PUSH2 0x52F JUMP JUMPDEST SWAP1 POP SWAP2 SWAP1 POP JUMP JUMPDEST PUSH32 0x4475706C6963617465206F776E65720000000000000000000000000000000000 PUSH0 DUP3 ADD MSTORE POP JUMP JUMPDEST PUSH0 PUSH2 0x5A3 PUSH1 0xF DUP4 PUSH2 0x462 JUMP JUMPDEST SWAP2 POP PUSH2 0x5AE DUP3 PUSH2 0x56F JUMP JUMPDEST PUSH1 0x20 DUP3 ADD SWAP1 POP SWAP2 SWAP1 POP JUMP JUMPDEST PUSH0 PUSH1 0x20 DUP3 ADD SWAP1 POP DUP2 DUP2 SUB PUSH0 DUP4 ADD MSTORE PUSH2 0x5D0 DUP2 PUSH2 0x597 JUMP JUMPDEST SWAP1 POP SWAP2 SWAP1 POP JUMP JUMPDEST PUSH2 0xEC0 DUP1 PUSH2 0x5E4 PUSH0 CODECOPY PUSH0 RETURN INVALID PUSH1 0x80 PUSH1 0x40 MSTORE PUSH1 0x4 CALLDATASIZE LT PUSH2 0xA6 JUMPI PUSH0 CALLDATALOAD PUSH1 0xE0 SHR DUP1 PUSH4 0x6884D0A6 GT PUSH2 0x63 JUMPI DUP1 PUSH4 0x6884D0A6 EQ PUSH2 0x1B4 JUMPI DUP1 PUSH4 0x9430B496 EQ PUSH2 0x1DE JUMPI DUP1 PUSH4 0xA0E67E2B EQ PUSH2 0x21A JUMPI DUP1 PUSH4 0xC1D4691A EQ PUSH2 0x244 JUMPI DUP1 PUSH4 0xD0E30DB0 EQ PUSH2 0x26E JUMPI DUP1 PUSH4 0xE6E268F4 EQ PUSH2 0x278 JUMPI PUSH2 0xA6 JUMP JUMPDEST DUP1 PUSH4 0x25E7C27 EQ PUSH2 0xAA JUMPI DUP1 PUSH4 0x12065FE0 EQ PUSH2 0xE6 JUMPI DUP1 PUSH4 0x21739779 EQ PUSH2 0x110 JUMPI DUP1 PUSH4 0x2A853664 EQ PUSH2 0x138 JUMPI DUP1 PUSH4 0x2C8B8BB3 EQ PUSH2 0x162 JUMPI DUP1 PUSH4 0x2F54BF6E EQ PUSH2 0x178 JUMPI JUMPDEST PUSH0 PUSH0 REVERT JUMPDEST CALLVALUE DUP1 ISZERO PUSH2 0xB5 JUMPI PUSH0 PUSH0 REVERT JUMPDEST POP PUSH2 0xD0 PUSH1 0x4 DUP1 CALLDATASIZE SUB DUP2 ADD SWAP1 PUSH2 0xCB SWAP2 SWAP1 PUSH2 0x989 JUMP JUMPDEST PUSH2 0x2A2 JUMP JUMPDEST PUSH1 0x40 MLOAD PUSH2 0xDD SWAP2 SWAP1 PUSH2 0x9F3 JUMP JUMPDEST PUSH1 0x40 MLOAD DUP1 SWAP2 SUB SWAP1 RETURN JUMPDEST CALLVALUE DUP1 ISZERO PUSH2 0xF1 JUMPI PUSH0 PUSH0 REVERT JUMPDEST POP PUSH2 0xFA PUSH2 0x2DC JUMP JUMPDEST PUSH1 0x40 MLOAD PUSH2 0x107 SWAP2 SWAP1 PUSH2 0xA1B JUMP JUMPDEST PUSH1 0x40 MLOAD DUP1 SWAP2 SUB SWAP1 RETURN JUMPDEST CALLVALUE DUP1 ISZERO PUSH2 0x11B JUMPI PUSH0 PUSH0 REVERT JUMPDEST POP PUSH2 0x136 PUSH1 0x4 DUP1 CALLDATASIZE SUB DUP2 ADD SWAP1 PUSH2 0x131 SWAP2 SWAP1 PUSH2 0xA5E JUMP JUMPDEST PUSH2 0x2E3 JUMP JUMPDEST STOP JUMPDEST CALLVALUE DUP1 ISZERO PUSH2 0x143 JUMPI PUSH0 PUSH0 REVERT JUMPDEST POP PUSH2 0x14C PUSH2 0x519 JUMP JUMPDEST PUSH1 0x40 MLOAD PUSH2 0x159 SWAP2 SWAP1 PUSH2 0xAB6 JUMP JUMPDEST PUSH1 0x40 MLOAD DUP1 SWAP2 SUB SWAP1 RETURN JUMPDEST CALLVALUE DUP1 ISZERO PUSH2 0x16D JUMPI PUSH0 PUSH0 REVERT JUMPDEST POP PUSH2 0x176 PUSH2 0x52C JUMP JUMPDEST STOP JUMPDEST CALLVALUE DUP1 ISZERO PUSH2 0x183 JUMPI PUSH0 PUSH0 REVERT JUMPDEST POP PUSH2 0x19E PUSH1 0x4 DUP1 CALLDATASIZE SUB DUP2 ADD SWAP1 PUSH2 0x199 SWAP2 SWAP1 PUSH2 0xACF JUMP JUMPDEST PUSH2 0x7D2 JUMP JUMPDEST PUSH1 0x40 MLOAD PUSH2 0x1AB SWAP2 SWAP1 PUSH2 0xAB6 JUMP JUMPDEST PUSH1 0x40 MLOAD DUP1 SWAP2 SUB SWAP1 RETURN JUMPDEST CALLVALUE DUP1 ISZERO PUSH2 0x1BF JUMPI PUSH0 PUSH0 REVERT JUMPDEST POP PUSH2 0x1C8 PUSH2 0x7EF JUMP JUMPDEST PUSH1 0x40 MLOAD PUSH2 0x1D5 SWAP2 SWAP1 PUSH2 0xA1B JUMP JUMPDEST PUSH1 0x40 MLOAD DUP1 SWAP2 SUB SWAP1 RETURN JUMPDEST CALLVALUE DUP1 ISZERO PUSH2 0x1E9 JUMPI PUSH0 PUSH0 REVERT JUMPDEST POP PUSH2 0x204 PUSH1 0x4 DUP1 CALLDATASIZE SUB DUP2 ADD SWAP1 PUSH2 0x1FF SWAP2 SWAP1 PUSH2 0xACF JUMP JUMPDEST PUSH2 0x7F5 JUMP JUMPDEST PUSH1 0x40 MLOAD PUSH2 0x211 SWAP2 SWAP1 PUSH2 0xAB6 JUMP JUMPDEST PUSH1 0x40 MLOAD DUP1 SWAP2 SUB SWAP1 RETURN JUMPDEST CALLVALUE DUP1 ISZERO PUSH2 0x225 JUMPI PUSH0 PUSH0 REVERT JUMPDEST POP PUSH2 0x22E PUSH2 0x812 JUMP JUMPDEST PUSH1 0x40 MLOAD PUSH2 0x23B SWAP2 SWAP1 PUSH2 0xBB1 JUMP JUMPDEST PUSH1 0x40 MLOAD DUP1 SWAP2 SUB SWAP1 RETURN JUMPDEST CALLVALUE DUP1 ISZERO PUSH2 0x24F JUMPI PUSH0 PUSH0 REVERT JUMPDEST POP PUSH2 0x258 PUSH2 0x89C JUMP JUMPDEST PUSH1 0x40 MLOAD PUSH2 0x265 SWAP2 SWAP1 PUSH2 0x9F3 JUMP JUMPDEST PUSH1 0x40 MLOAD DUP1 SWAP2 SUB SWAP1 RETURN JUMPDEST PUSH2 0x276 PUSH2 0x8C1 JUMP JUMPDEST STOP JUMPDEST CALLVALUE DUP1 ISZERO PUSH2 0x283 JUMPI PUSH0 PUSH0 REVERT JUMPDEST POP PUSH2 0x28C PUSH2 0x94C JUMP JUMPDEST PUSH1 0x40 MLOAD PUSH2 0x299 SWAP2 SWAP1 PUSH2 0xA1B JUMP JUMPDEST PUSH1 0x40 MLOAD DUP1 SWAP2 SUB SWAP1 RETURN JUMPDEST PUSH0 DUP2 DUP2 SLOAD DUP2 LT PUSH2 0x2B0 JUMPI PUSH0 DUP1 REVERT JUMPDEST SWAP1 PUSH0 MSTORE PUSH1 0x20 PUSH0 KECCAK256 ADD PUSH0 SWAP2 POP SLOAD SWAP1 PUSH2 0x100 EXP SWAP1 DIV PUSH20 0xFFFFFFFFFFFFFFFFFFFFFFFFFFFFFFFFFFFFFFFF AND DUP2 JUMP JUMPDEST PUSH0 SELFBALANCE SWAP1 POP SWAP1 JUMP JUMPDEST PUSH1 0x1 PUSH0 CALLER PUSH20 0xFFFFFFFFFFFFFFFFFFFFFFFFFFFFFFFFFFFFFFFF AND PUSH20 0xFFFFFFFFFFFFFFFFFFFFFFFFFFFFFFFFFFFFFFFF AND DUP2 MSTORE PUSH1 0x20 ADD SWAP1 DUP2 MSTORE PUSH1 0x20 ADD PUSH0 KECCAK256 PUSH0 SWAP1 SLOAD SWAP1 PUSH2 0x100 EXP SWAP1 DIV PUSH1 0xFF AND PUSH2 0x36C JUMPI PUSH1 0x40 MLOAD PUSH32 0x8C379A000000000000000000000000000000000000000000000000000000000 DUP2 MSTORE PUSH1 0x4 ADD PUSH2 0x363 SWAP1 PUSH2 0xC2B JUMP JUMPDEST PUSH1 0x40 MLOAD DUP1 SWAP2 SUB SWAP1 REVERT JUMPDEST PUSH1 0x3 PUSH1 0x14 SWAP1 SLOAD SWAP1 PUSH2 0x100 EXP SWAP1 DIV PUSH1 0xFF AND ISZERO PUSH2 0x3BC JUMPI PUSH1 0x40 MLOAD PUSH32 0x8C379A000000000000000000000000000000000000000000000000000000000 DUP2 MSTORE PUSH1 0x4 ADD PUSH2 0x3B3 SWAP1 PUSH2 0xC93 JUMP JUMPDEST PUSH1 0x40 MLOAD DUP1 SWAP2 SUB SWAP1 REVERT JUMPDEST DUP2 SELFBALANCE LT ISZERO PUSH2 0x3FF JUMPI PUSH1 0x40 MLOAD PUSH32 0x8C379A000000000000000000000000000000000000000000000000000000000 DUP2 MSTORE PUSH1 0x4 ADD PUSH2 0x3F6 SWAP1 PUSH2 0xCFB JUMP JUMPDEST PUSH1 0x40 MLOAD DUP1 SWAP2 SUB SWAP1 REVERT JUMPDEST DUP2 PUSH1 0x2 DUP2 SWAP1 SSTORE POP DUP1 PUSH1 0x3 PUSH0 PUSH2 0x100 EXP DUP2 SLOAD DUP2 PUSH20 0xFFFFFFFFFFFFFFFFFFFFFFFFFFFFFFFFFFFFFFFF MUL NOT AND SWAP1 DUP4 PUSH20 0xFFFFFFFFFFFFFFFFFFFFFFFFFFFFFFFFFFFFFFFF AND MUL OR SWAP1 SSTORE POP PUSH1 0x1 PUSH1 0x3 PUSH1 0x14 PUSH2 0x100 EXP DUP2 SLOAD DUP2 PUSH1 0xFF MUL NOT AND SWAP1 DUP4 ISZERO ISZERO MUL OR SWAP1 SSTORE POP PUSH0 PUSH0 SWAP1 POP JUMPDEST PUSH0 DUP1 SLOAD SWAP1 POP DUP2 LT ISZERO PUSH2 0x50D JUMPI PUSH0 PUSH1 0x4 PUSH0 PUSH0 DUP5 DUP2 SLOAD DUP2 LT PUSH2 0x489 JUMPI PUSH2 0x488 PUSH2 0xD19 JUMP JUMPDEST JUMPDEST SWAP1 PUSH0 MSTORE PUSH1 0x20 PUSH0 KECCAK256 ADD PUSH0 SWAP1 SLOAD SWAP1 PUSH2 0x100 EXP SWAP1 DIV PUSH20 0xFFFFFFFFFFFFFFFFFFFFFFFFFFFFFFFFFFFFFFFF AND PUSH20 0xFFFFFFFFFFFFFFFFFFFFFFFFFFFFFFFFFFFFFFFF AND PUSH20 0xFFFFFFFFFFFFFFFFFFFFFFFFFFFFFFFFFFFFFFFF AND DUP2 MSTORE PUSH1 0x20 ADD SWAP1 DUP2 MSTORE PUSH1 0x20 ADD PUSH0 KECCAK256 PUSH0 PUSH2 0x100 EXP DUP2 SLOAD DUP2 PUSH1 0xFF MUL NOT AND SWAP1 DUP4 ISZERO ISZERO MUL OR SWAP1 SSTORE POP DUP1 DUP1 PUSH1 0x1 ADD SWAP2 POP POP PUSH2 0x466 JUMP JUMPDEST POP PUSH0 PUSH1 0x5 DUP2 SWAP1 SSTORE POP POP POP JUMP JUMPDEST PUSH1 0x3 PUSH1 0x14 SWAP1 SLOAD SWAP1 PUSH2 0x100 EXP SWAP1 DIV PUSH1 0xFF AND DUP2 JUMP JUMPDEST PUSH1 0x1 PUSH0 CALLER PUSH20 0xFFFFFFFFFFFFFFFFFFFFFFFFFFFFFFFFFFFFFFFF AND PUSH20 0xFFFFFFFFFFFFFFFFFFFFFFFFFFFFFFFFFFFFFFFF AND DUP2 MSTORE PUSH1 0x20 ADD SWAP1 DUP2 MSTORE PUSH1 0x20 ADD PUSH0 KECCAK256 PUSH0 SWAP1 SLOAD SWAP1 PUSH2 0x100 EXP SWAP1 DIV PUSH1 0xFF AND PUSH2 0x5B5 JUMPI PUSH1 0x40 MLOAD PUSH32 0x8C379A000000000000000000000000000000000000000000000000000000000 DUP2 MSTORE PUSH1 0x4 ADD PUSH2 0x5AC SWAP1 PUSH2 0xC2B JUMP JUMPDEST PUSH1 0x40 MLOAD DUP1 SWAP2 SUB SWAP1 REVERT JUMPDEST PUSH1 0x3 PUSH1 0x14 SWAP1 SLOAD SWAP1 PUSH2 0x100 EXP SWAP1 DIV PUSH1 0xFF AND PUSH2 0x604 JUMPI PUSH1 0x40 MLOAD PUSH32 0x8C379A000000000000000000000000000000000000000000000000000000000 DUP2 MSTORE PUSH1 0x4 ADD PUSH2 0x5FB SWAP1 PUSH2 0xD90 JUMP JUMPDEST PUSH1 0x40 MLOAD DUP1 SWAP2 SUB SWAP1 REVERT JUMPDEST PUSH1 0x4 PUSH0 CALLER PUSH20 0xFFFFFFFFFFFFFFFFFFFFFFFFFFFFFFFFFFFFFFFF AND PUSH20 0xFFFFFFFFFFFFFFFFFFFFFFFFFFFFFFFFFFFFFFFF AND DUP2 MSTORE PUSH1 0x20 ADD SWAP1 DUP2 MSTORE PUSH1 0x20 ADD PUSH0 KECCAK256 PUSH0 SWAP1 SLOAD SWAP1 PUSH2 0x100 EXP SWAP1 DIV PUSH1 0xFF AND ISZERO PUSH2 0x68E JUMPI PUSH1 0x40 MLOAD PUSH32 0x8C379A000000000000000000000000000000000000000000000000000000000 DUP2 MSTORE PUSH1 0x4 ADD PUSH2 0x685 SWAP1 PUSH2 0xDF8 JUMP JUMPDEST PUSH1 0x40 MLOAD DUP1 SWAP2 SUB SWAP1 REVERT JUMPDEST PUSH1 0x1 PUSH1 0x4 PUSH0 CALLER PUSH20 0xFFFFFFFFFFFFFFFFFFFFFFFFFFFFFFFFFFFFFFFF AND PUSH20 0xFFFFFFFFFFFFFFFFFFFFFFFFFFFFFFFFFFFFFFFF AND DUP2 MSTORE PUSH1 0x20 ADD SWAP1 DUP2 MSTORE PUSH1 0x20 ADD PUSH0 KECCAK256 PUSH0 PUSH2 0x100 EXP DUP2 SLOAD DUP2 PUSH1 0xFF MUL NOT AND SWAP1 DUP4 ISZERO ISZERO MUL OR SWAP1 SSTORE POP PUSH1 0x5 PUSH0 DUP2 SLOAD DUP1 SWAP3 SWAP2 SWAP1 PUSH2 0x6F5 SWAP1 PUSH2 0xE43 JUMP JUMPDEST SWAP2 SWAP1 POP SSTORE POP PUSH0 DUP1 SLOAD SWAP1 POP PUSH1 0x5 SLOAD SUB PUSH2 0x7D0 JUMPI PUSH1 0x3 PUSH0 SWAP1 SLOAD SWAP1 PUSH2 0x100 EXP SWAP1 DIV PUSH20 0xFFFFFFFFFFFFFFFFFFFFFFFFFFFFFFFFFFFFFFFF AND PUSH20 0xFFFFFFFFFFFFFFFFFFFFFFFFFFFFFFFFFFFFFFFF AND PUSH2 0x8FC PUSH1 0x2 SLOAD SWAP1 DUP2 ISZERO MUL SWAP1 PUSH1 0x40 MLOAD PUSH0 PUSH1 0x40 MLOAD DUP1 DUP4 SUB DUP2 DUP6 DUP9 DUP9 CALL SWAP4 POP POP POP POP ISZERO DUP1 ISZERO PUSH2 0x76D JUMPI RETURNDATASIZE PUSH0 PUSH0 RETURNDATACOPY RETURNDATASIZE PUSH0 REVERT JUMPDEST POP PUSH0 PUSH1 0x3 PUSH1 0x14 PUSH2 0x100 EXP DUP2 SLOAD DUP2 PUSH1 0xFF MUL NOT AND SWAP1 DUP4 ISZERO ISZERO MUL OR SWAP1 SSTORE POP PUSH0 PUSH1 0x2 DUP2 SWAP1 SSTORE POP PUSH0 PUSH1 0x3 PUSH0 PUSH2 0x100 EXP DUP2 SLOAD DUP2 PUSH20 0xFFFFFFFFFFFFFFFFFFFFFFFFFFFFFFFFFFFFFFFF MUL NOT AND SWAP1 DUP4 PUSH20 0xFFFFFFFFFFFFFFFFFFFFFFFFFFFFFFFFFFFFFFFF AND MUL OR SWAP1 SSTORE POP JUMPDEST JUMP JUMPDEST PUSH1 0x1 PUSH1 0x20 MSTORE DUP1 PUSH0 MSTORE PUSH1 0x40 PUSH0 KECCAK256 PUSH0 SWAP2 POP SLOAD SWAP1 PUSH2 0x100 EXP SWAP1 DIV PUSH1 0xFF AND DUP2 JUMP JUMPDEST PUSH1 0x5 SLOAD DUP2 JUMP JUMPDEST PUSH1 0x4 PUSH1 0x20 MSTORE DUP1 PUSH0 MSTORE PUSH1 0x40 PUSH0 KECCAK256 PUSH0 SWAP2 POP SLOAD SWAP1 PUSH2 0x100 EXP SWAP1 DIV PUSH1 0xFF AND DUP2 JUMP JUMPDEST PUSH1 0x60 PUSH0 DUP1 SLOAD DUP1 PUSH1 0x20 MUL PUSH1 0x20 ADD PUSH1 0x40 MLOAD SWAP1 DUP2 ADD PUSH1 0x40 MSTORE DUP1 SWAP3 SWAP2 SWAP1 DUP2 DUP2 MSTORE PUSH1 0x20 ADD DUP3 DUP1 SLOAD DUP1 ISZERO PUSH2 0x892 JUMPI PUSH1 0x20 MUL DUP3 ADD SWAP2 SWAP1 PUSH0 MSTORE PUSH1 0x20 PUSH0 KECCAK256 SWAP1 JUMPDEST DUP2 PUSH0 SWAP1 SLOAD SWAP1 PUSH2 0x100 EXP SWAP1 DIV PUSH20 0xFFFFFFFFFFFFFFFFFFFFFFFFFFFFFFFFFFFFFFFF AND PUSH20 0xFFFFFFFFFFFFFFFFFFFFFFFFFFFFFFFFFFFFFFFF AND DUP2 MSTORE PUSH1 0x20 ADD SWAP1 PUSH1 0x1 ADD SWAP1 DUP1 DUP4 GT PUSH2 0x849 JUMPI JUMPDEST POP POP POP POP POP SWAP1 POP SWAP1 JUMP JUMPDEST PUSH1 0x3 PUSH0 SWAP1 SLOAD SWAP1 PUSH2 0x100 EXP SWAP1 DIV PUSH20 0xFFFFFFFFFFFFFFFFFFFFFFFFFFFFFFFFFFFFFFFF AND DUP2 JUMP JUMPDEST PUSH1 0x1 PUSH0 CALLER PUSH20 0xFFFFFFFFFFFFFFFFFFFFFFFFFFFFFFFFFFFFFFFF AND PUSH20 0xFFFFFFFFFFFFFFFFFFFFFFFFFFFFFFFFFFFFFFFF AND DUP2 MSTORE PUSH1 0x20 ADD SWAP1 DUP2 MSTORE PUSH1 0x20 ADD PUSH0 KECCAK256 PUSH0 SWAP1 SLOAD SWAP1 PUSH2 0x100 EXP SWAP1 DIV PUSH1 0xFF AND PUSH2 0x94A JUMPI PUSH1 0x40 MLOAD PUSH32 0x8C379A000000000000000000000000000000000000000000000000000000000 DUP2 MSTORE PUSH1 0x4 ADD PUSH2 0x941 SWAP1 PUSH2 0xC2B JUMP JUMPDEST PUSH1 0x40 MLOAD DUP1 SWAP2 SUB SWAP1 REVERT JUMPDEST JUMP JUMPDEST PUSH1 0x2 SLOAD DUP2 JUMP JUMPDEST PUSH0 PUSH0 REVERT JUMPDEST PUSH0 DUP2 SWAP1 POP SWAP2 SWAP1 POP JUMP JUMPDEST PUSH2 0x968 DUP2 PUSH2 0x956 JUMP JUMPDEST DUP2 EQ PUSH2 0x972 JUMPI PUSH0 PUSH0 REVERT JUMPDEST POP JUMP JUMPDEST PUSH0 DUP2 CALLDATALOAD SWAP1 POP PUSH2 0x983 DUP2 PUSH2 0x95F JUMP JUMPDEST SWAP3 SWAP2 POP POP JUMP JUMPDEST PUSH0 PUSH1 0x20 DUP3 DUP5 SUB SLT ISZERO PUSH2 0x99E JUMPI PUSH2 0x99D PUSH2 0x952 JUMP JUMPDEST JUMPDEST PUSH0 PUSH2 0x9AB DUP5 DUP3 DUP6 ADD PUSH2 0x975 JUMP JUMPDEST SWAP2 POP POP SWAP3 SWAP2 POP POP JUMP JUMPDEST PUSH0 PUSH20 0xFFFFFFFFFFFFFFFFFFFFFFFFFFFFFFFFFFFFFFFF DUP3 AND SWAP1 POP SWAP2 SWAP1 POP JUMP JUMPDEST PUSH0 PUSH2 0x9DD DUP3 PUSH2 0x9B4 JUMP JUMPDEST SWAP1 POP SWAP2 SWAP1 POP JUMP JUMPDEST PUSH2 0x9ED DUP2 PUSH2 0x9D3 JUMP JUMPDEST DUP3 MSTORE POP POP JUMP JUMPDEST PUSH0 PUSH1 0x20 DUP3 ADD SWAP1 POP PUSH2 0xA06 PUSH0 DUP4 ADD DUP5 PUSH2 0x9E4 JUMP JUMPDEST SWAP3 SWAP2 POP POP JUMP JUMPDEST PUSH2 0xA15 DUP2 PUSH2 0x956 JUMP JUMPDEST DUP3 MSTORE POP POP JUMP JUMPDEST PUSH0 PUSH1 0x20 DUP3 ADD SWAP1 POP PUSH2 0xA2E PUSH0 DUP4 ADD DUP5 PUSH2 0xA0C JUMP JUMPDEST SWAP3 SWAP2 POP POP JUMP JUMPDEST PUSH2 0xA3D DUP2 PUSH2 0x9D3 JUMP JUMPDEST DUP2 EQ PUSH2 0xA47 JUMPI PUSH0 PUSH0 REVERT JUMPDEST POP JUMP JUMPDEST PUSH0 DUP2 CALLDATALOAD SWAP1 POP PUSH2 0xA58 DUP2 PUSH2 0xA34 JUMP JUMPDEST SWAP3 SWAP2 POP POP JUMP JUMPDEST PUSH0 PUSH0 PUSH1 0x40 DUP4 DUP6 SUB SLT ISZERO PUSH2 0xA74 JUMPI PUSH2 0xA73 PUSH2 0x952 JUMP JUMPDEST JUMPDEST PUSH0 PUSH2 0xA81 DUP6 DUP3 DUP7 ADD PUSH2 0x975 JUMP JUMPDEST SWAP3 POP POP PUSH1 0x20 PUSH2 0xA92 DUP6 DUP3 DUP7 ADD PUSH2 0xA4A JUMP JUMPDEST SWAP2 POP POP SWAP3 POP SWAP3 SWAP1 POP JUMP JUMPDEST PUSH0 DUP2 ISZERO ISZERO SWAP1 POP SWAP2 SWAP1 POP JUMP JUMPDEST PUSH2 0xAB0 DUP2 PUSH2 0xA9C JUMP JUMPDEST DUP3 MSTORE POP POP JUMP JUMPDEST PUSH0 PUSH1 0x20 DUP3 ADD SWAP1 POP PUSH2 0xAC9 PUSH0 DUP4 ADD DUP5 PUSH2 0xAA7 JUMP JUMPDEST SWAP3 SWAP2 POP POP JUMP JUMPDEST PUSH0 PUSH1 0x20 DUP3 DUP5 SUB SLT ISZERO PUSH2 0xAE4 JUMPI PUSH2 0xAE3 PUSH2 0x952 JUMP JUMPDEST JUMPDEST PUSH0 PUSH2 0xAF1 DUP5 DUP3 DUP6 ADD PUSH2 0xA4A JUMP JUMPDEST SWAP2 POP POP SWAP3 SWAP2 POP POP JUMP JUMPDEST PUSH0 DUP2 MLOAD SWAP1 POP SWAP2 SWAP1 POP JUMP JUMPDEST PUSH0 DUP3 DUP3 MSTORE PUSH1 0x20 DUP3 ADD SWAP1 POP SWAP3 SWAP2 POP POP JUMP JUMPDEST PUSH0 DUP2 SWAP1 POP PUSH1 0x20 DUP3 ADD SWAP1 POP SWAP2 SWAP1 POP JUMP JUMPDEST PUSH2 0xB2C DUP2 PUSH2 0x9D3 JUMP JUMPDEST DUP3 MSTORE POP POP JUMP JUMPDEST PUSH0 PUSH2 0xB3D DUP4 DUP4 PUSH2 0xB23 JUMP JUMPDEST PUSH1 0x20 DUP4 ADD SWAP1 POP SWAP3 SWAP2 POP POP JUMP JUMPDEST PUSH0 PUSH1 0x20 DUP3 ADD SWAP1 POP SWAP2 SWAP1 POP JUMP JUMPDEST PUSH0 PUSH2 0xB5F DUP3 PUSH2 0xAFA JUMP JUMPDEST PUSH2 0xB69 DUP2 DUP6 PUSH2 0xB04 JUMP JUMPDEST SWAP4 POP PUSH2 0xB74 DUP4 PUSH2 0xB14 JUMP JUMPDEST DUP1 PUSH0 JUMPDEST DUP4 DUP2 LT ISZERO PUSH2 0xBA4 JUMPI DUP2 MLOAD PUSH2 0xB8B DUP9 DUP3 PUSH2 0xB32 JUMP JUMPDEST SWAP8 POP PUSH2 0xB96 DUP4 PUSH2 0xB49 JUMP JUMPDEST SWAP3 POP POP PUSH1 0x1 DUP2 ADD SWAP1 POP PUSH2 0xB77 JUMP JUMPDEST POP DUP6 SWAP4 POP POP POP POP SWAP3 SWAP2 POP POP JUMP JUMPDEST PUSH0 PUSH1 0x20 DUP3 ADD SWAP1 POP DUP2 DUP2 SUB PUSH0 DUP4 ADD MSTORE PUSH2 0xBC9 DUP2 DUP5 PUSH2 0xB55 JUMP JUMPDEST SWAP1 POP SWAP3 SWAP2 POP POP JUMP JUMPDEST PUSH0 DUP3 DUP3 MSTORE PUSH1 0x20 DUP3 ADD SWAP1 POP SWAP3 SWAP2 POP POP JUMP JUMPDEST PUSH32 0x4E6F7420616E206F776E65720000000000000000000000000000000000000000 PUSH0 DUP3 ADD MSTORE POP JUMP JUMPDEST PUSH0 PUSH2 0xC15 PUSH1 0xC DUP4 PUSH2 0xBD1 JUMP JUMPDEST SWAP2 POP PUSH2 0xC20 DUP3 PUSH2 0xBE1 JUMP JUMPDEST PUSH1 0x20 DUP3 ADD SWAP1 POP SWAP2 SWAP1 POP JUMP JUMPDEST PUSH0 PUSH1 0x20 DUP3 ADD SWAP1 POP DUP2 DUP2 SUB PUSH0 DUP4 ADD MSTORE PUSH2 0xC42 DUP2 PUSH2 0xC09 JUMP JUMPDEST SWAP1 POP SWAP2 SWAP1 POP JUMP JUMPDEST PUSH32 0x416C726561647920726571756573746564000000000000000000000000000000 PUSH0 DUP3 ADD MSTORE POP JUMP JUMPDEST PUSH0 PUSH2 0xC7D PUSH1 0x11 DUP4 PUSH2 0xBD1 JUMP JUMPDEST SWAP2 POP PUSH2 0xC88 DUP3 PUSH2 0xC49 JUMP JUMPDEST PUSH1 0x20 DUP3 ADD SWAP1 POP SWAP2 SWAP1 POP JUMP JUMPDEST PUSH0 PUSH1 0x20 DUP3 ADD SWAP1 POP DUP2 DUP2 SUB PUSH0 DUP4 ADD MSTORE PUSH2 0xCAA DUP2 PUSH2 0xC71 JUMP JUMPDEST SWAP1 POP SWAP2 SWAP1 POP JUMP JUMPDEST PUSH32 0x4E6F7420656E6F7567682066756E647300000000000000000000000000000000 PUSH0 DUP3 ADD MSTORE POP JUMP JUMPDEST PUSH0 PUSH2 0xCE5 PUSH1 0x10 DUP4 PUSH2 0xBD1 JUMP JUMPDEST SWAP2 POP PUSH2 0xCF0 DUP3 PUSH2 0xCB1 JUMP JUMPDEST PUSH1 0x20 DUP3 ADD SWAP1 POP SWAP2 SWAP1 POP JUMP JUMPDEST PUSH0 PUSH1 0x20 DUP3 ADD SWAP1 POP DUP2 DUP2 SUB PUSH0 DUP4 ADD MSTORE PUSH2 0xD12 DUP2 PUSH2 0xCD9 JUMP JUMPDEST SWAP1 POP SWAP2 SWAP1 POP JUMP JUMPDEST PUSH32 0x4E487B7100000000000000000000000000000000000000000000000000000000 PUSH0 MSTORE PUSH1 0x32 PUSH1 0x4 MSTORE PUSH1 0x24 PUSH0 REVERT JUMPDEST PUSH32 0x4E6F207769746864726177616C20726571756573746564000000000000000000 PUSH0 DUP3 ADD MSTORE POP JUMP JUMPDEST PUSH0 PUSH2 0xD7A PUSH1 0x17 DUP4 PUSH2 0xBD1 JUMP JUMPDEST SWAP2 POP PUSH2 0xD85 DUP3 PUSH2 0xD46 JUMP JUMPDEST PUSH1 0x20 DUP3 ADD SWAP1 POP SWAP2 SWAP1 POP JUMP JUMPDEST PUSH0 PUSH1 0x20 DUP3 ADD SWAP1 POP DUP2 DUP2 SUB PUSH0 DUP4 ADD MSTORE PUSH2 0xDA7 DUP2 PUSH2 0xD6E JUMP JUMPDEST SWAP1 POP SWAP2 SWAP1 POP JUMP JUMPDEST PUSH32 0x416C726561647920617070726F76656400000000000000000000000000000000 PUSH0 DUP3 ADD MSTORE POP JUMP JUMPDEST PUSH0 PUSH2 0xDE2 PUSH1 0x10 DUP4 PUSH2 0xBD1 JUMP JUMPDEST SWAP2 POP PUSH2 0xDED DUP3 PUSH2 0xDAE JUMP JUMPDEST PUSH1 0x20 DUP3 ADD SWAP1 POP SWAP2 SWAP1 POP JUMP JUMPDEST PUSH0 PUSH1 0x20 DUP3 ADD SWAP1 POP DUP2 DUP2 SUB PUSH0 DUP4 ADD MSTORE PUSH2 0xE0F DUP2 PUSH2 0xDD6 JUMP JUMPDEST SWAP1 POP SWAP2 SWAP1 POP JUMP JUMPDEST PUSH32 0x4E487B7100000000000000000000000000000000000000000000000000000000 PUSH0 MSTORE PUSH1 0x11 PUSH1 0x4 MSTORE PUSH1 0x24 PUSH0 REVERT JUMPDEST PUSH0 PUSH2 0xE4D DUP3 PUSH2 0x956 JUMP JUMPDEST SWAP2 POP PUSH32 0xFFFFFFFFFFFFFFFFFFFFFFFFFFFFFFFFFFFFFFFFFFFFFFFFFFFFFFFFFFFFFFFF DUP3 SUB PUSH2 0xE7F JUMPI PUSH2 0xE7E PUSH2 0xE16 JUMP JUMPDEST JUMPDEST PUSH1 0x1 DUP3 ADD SWAP1 POP SWAP2 SWAP1 POP JUMP INVALID LOG2 PUSH5 0x6970667358 0x22 SLT KECCAK256 DELEGATECALL SWAPN 0xA3 0xBA DUP1 BLOBBASEFEE 0xDB SHL 0xB0 0x2D CALLVALUE PUSH29 0xAAD3761868E0D15EACFFA737A58F1FB5A264A83B64736F6C634300081E STOP CALLER "
				},
				"gasEstimates": {
					"creation": {
						"codeDepositCost": "755200",
						"executionCost": "infinite",
						"totalCost": "infinite"
					},
					"external": {
						"approval(address)": "2855",
						"approvalCount()": "2425",
						"approveWithdrawal()": "infinite",
						"deposit()": "2730",
						"getBalance()": "357",
						"getOwners()": "infinite",
						"isOwner(address)": "2944",
						"owners(uint256)": "4944",
						"requestWithdrawal(uint256,address)": "infinite",
						"withdrawalAmount()": "2535",
						"withdrawalRequested()": "2584",
						"withdrawalTo()": "2574"
					}
				},
				"methodIdentifiers": {
					"approval(address)": "9430b496",
					"approvalCount()": "6884d0a6",
					"approveWithdrawal()": "2c8b8bb3",
					"deposit()": "d0e30db0",
					"getBalance()": "12065fe0",
					"getOwners()": "a0e67e2b",
					"isOwner(address)": "2f54bf6e",
					"owners(uint256)": "025e7c27",
					"requestWithdrawal(uint256,address)": "21739779",
					"withdrawalAmount()": "e6e268f4",
					"withdrawalRequested()": "2a853664",
					"withdrawalTo()": "c1d4691a"
				}
			},
			"storageLayout": {
				"storage": [
					{
						"astId": 4,
						"contract": "Multi_Owner_Wallet.sol:MultiOwnerWallet",
						"label": "owners",
						"offset": 0,
						"slot": "0",
						"type": "t_array(t_address)dyn_storage"
					},
					{
						"astId": 8,
						"contract": "Multi_Owner_Wallet.sol:MultiOwnerWallet",
						"label": "isOwner",
						"offset": 0,
						"slot": "1",
						"type": "t_mapping(t_address,t_bool)"
					},
					{
						"astId": 10,
						"contract": "Multi_Owner_Wallet.sol:MultiOwnerWallet",
						"label": "withdrawalAmount",
						"offset": 0,
						"slot": "2",
						"type": "t_uint256"
					},
					{
						"astId": 12,
						"contract": "Multi_Owner_Wallet.sol:MultiOwnerWallet",
						"label": "withdrawalTo",
						"offset": 0,
						"slot": "3",
						"type": "t_address"
					},
					{
						"astId": 14,
						"contract": "Multi_Owner_Wallet.sol:MultiOwnerWallet",
						"label": "withdrawalRequested",
						"offset": 20,
						"slot": "3",
						"type": "t_bool"
					},
					{
						"astId": 18,
						"contract": "Multi_Owner_Wallet.sol:MultiOwnerWallet",
						"label": "approval",
						"offset": 0,
						"slot": "4",
						"type": "t_mapping(t_address,t_bool)"
					},
					{
						"astId": 20,
						"contract": "Multi_Owner_Wallet.sol:MultiOwnerWallet",
						"label": "approvalCount",
						"offset": 0,
						"slot": "5",
						"type": "t_uint256"
					}
				],
				"types": {
					"t_address": {
						"encoding": "inplace",
						"label": "address",
						"numberOfBytes": "20"
					},
					"t_array(t_address)dyn_storage": {
						"base": "t_address",
						"encoding": "dynamic_array",
						"label": "address[]",
						"numberOfBytes": "32"
					},
					"t_bool": {
						"encoding": "inplace",
						"label": "bool",
						"numberOfBytes": "1"
					},
					"t_mapping(t_address,t_bool)": {
						"encoding": "mapping",
						"key": "t_address",
						"label": "mapping(address => bool)",
						"numberOfBytes": "32",
						"value": "t_bool"
					},
					"t_uint256": {
						"encoding": "inplace",
						"label": "uint256",
						"numberOfBytes": "32"
					}
				}
			},
			"userdoc": {
				"kind": "user",
				"methods": {},
				"version": 1
			}
		}
	}
}